:020000040800F2
:100000009845002081020008DD910008A103000846
:10001000D99100083D1E000815B20008000000003C
:100020000000000000000000000000009302000833
:100030000D26000800000000EF02000871A1000872
:100040009B0200089B0200089B0200089B0200081C
:100050009B0200089B0200089B0200089B0200080C
:100060009B0200089B0200089B0200089B020008FC
:10007000712500087D2500088925000895250008C0
:10008000A1250008AD2500089B0200089B0200087E
:10009000411E00089B0200089B0200089B0200080A
:1000A0009B0200089B0200089B0200089B020008BC
:1000B000E9A200089B020008F5A200089B020008C4
:1000C0009B0200089B0200089B0200089B0200089C
:1000D0009B02000815B1000855B1000895B1000851
:1000E000513300089B0200089B0200089B02000895
:1000F0009B0200089B0200089B020008B92500082B
:100100009B0200089B02000801A300089B02000854
:1001100029AB000869AB00089B0200089B0200089D
:10012000C5250008D1250008DD2500089B02000830
:100130009B0200089B0200089B0200089B0200082B
:100140004D1E00089B0200089B0200089B0200084D
:10015000E9250008F525000801260008D5B10008AA
:100160009B0200089B0200089B0200089B020008FB
:100170009B0200089B0200089B0200080000000090
:100180009B0200089B02000800F002F800F069F8EA
:1001900014A696E8000CB244B344DA4501D100F04D
:1001A00060F8BAE80F000FA696E83000A5EB04054A
:1001B00004EB0607AAEB0704A7F101074FEA1515A0
:1001C0004FEA3414A4F10104AC4201D300F049F821
:1001D00013F0010F18BFFB1A43F0010300F001F800
:1001E000DBE718478C6F0100AC6F0100103A24BFA9
:1001F00078C878C1FAD8520724BF30C830C144BF8C
:1002000004680C6070470000704700000023002461
:1002100000250026103A28BF78C1FBD8520728BF16
:1002200030C148BF0B607047642900F00582002090
:1002300070471FB510F024FF9DE8030000F094FB09
:1002400001F04EF804000020002110F011FD401CC8
:1002500060600020002110F0F5FCE0601FBD10B5CB
:1002600010BD00F018FD1146FFF7E3FF01F01AFB87
:1002700000F0BAFF03B4FFF7F2FF03BC01F02AF865
:100280000948804709480047FEE7FEE7FEE7FEE72A
:10029000FEE7FEE7FEE7FEE7FEE7FEE70448054966
:1002A000054A064B70470000D5A2000889010008E6
:1002B000983F002098450020984100209841002058
:1002C000EFF3108072B6704780F310887047424A8F
:1002D0001368012B04D04FF0010313603F4A1060F4
:1002E0003F4A11603F484FF0805101607047EFF383
:1002F000108272B63848016851B34FF000010160B6
:100300003648016891B1EFF309811EF0100F08BF64
:1003100021ED108B21E9F00F4FF000041EF0100FBB
:1003200008BF012441F8044D006801602C490968A8
:10033000096808C9B1E8F00F002B18BFB1EC108BA9
:1003400081F309884EF0100E002B18BF2EF0100E0E
:1003500082F310884EF0040E704721490860EFF3D5
:10036000148222F0040282F314881C494FF000002A
:10037000086019494FF0010008601B481B49D0F87C
:10038000002041EA0201016016484FF080510160EF
:1003900017480068006880F3088861B662B6704745
:1003A0001EF0040F0CBFEFF30880EFF3098020E983
:1003B000F00F40F804ED40F804ED1EF0040F0CBF00
:1003C00080F3088880F3098800B50EF003F95DF822
:1003D00004EB4EF0040E7047443D0020A83A002084
:1003E000B03A002004ED00E020ED00E00000FFFF47
:1003F00008ED00E070B5064600F09AFA056806F1CF
:100400000B0020F00704B4429CBF002070BD2B46B7
:100410006A68BAB11068A04210D304F1080188429A
:100420003CBF5068586007D351681019416011688B
:10043000091B016058601460101D70BD134652689E
:10044000002AE7D12146284600F07AFA0028DED1BA
:1004500070BD70B50446051F00F06AFA0068002CF4
:1004600014BF446870BD002C18BFAC423CBF20468E
:100470006468F8D301680A18AA4218BF456003D11E
:100480002A6805461144016028684119A1421CBF31
:100490006C6070BD6168696021680844286070BD47
:1004A00053EA020C00F069802DE9F04B4FF0000692
:1004B000002B1FBFB3FA83F503FA05F424FA05F6FF
:1004C0005E4012BF1643B2FA82F502FA05F4C5F196
:1004D00020051EBF22FA05FC44EA0C04203556EA2A
:1004E000044C4FEA144418BF641C4FF000084FF04E
:1004F0000009904271EB030C39D3002919BFB1FAFE
:1005000081F701FA07F6B0FA80F700FA07F6C7F1AB
:1005100020071EBF20FA07FC46EA0C062037B6FB70
:10052000F4FCA7EB0507103F07F01F0BCBF12006EB
:100530002CFA06F60CFA0BFB44BFB3460026202F1C
:10054000A4BF5E464FF0000B5BEA060C08BF4FF0FD
:10055000010B19EB0B0948EB0608ABFB027C06FB11
:1005600002CC0BFB03CCC01B71EB0C01C1E70B46AB
:10057000024641464846BDE8F08B13B5084318BF14
:100580004FF0FF300146AFF30080BDE81C407047DC
:100590000FB41CB50C0007AA009007D04142A1423D
:1005A00002D32044401E01E04FF0FF30074B7B4454
:1005B00069460190069800F076FA0021002C01D0DF
:1005C000009A11701CBC5DF814FB00001B050000B4
:1005D0002DE9F0410E460446002020622046E168E5
:1005E000884730B3252805D0D4E901219047206AF7
:1005F000401CF2E7E168204600278847050018D034
:10060000A5F14100192802D820354FF40067324681
:10061000294620462760FFF707FE40B1012804D095
:10062000F61D26F007060836D8E7361DD6E7284619
:10063000DAE7206ABDE8F0812DE9F04106460024A2
:1006400010687529314616A510D0AFF30080002838
:1006500002DA404213A507E031688A0701D512A5E6
:1006600002E0490704D511A5012401E0AFF30080A1
:1006700000210A2206F1240709E0B0FBF2FCB0FBDE
:10068000F2F302FB1C00303078541846491C002855
:10069000F3D123462A463046BDE8F04100F0A4B924
:1006A000000000002D0000002B00000020000000D2
:1006B00030B505460B462A4613F8014B12F8010BDC
:1006C00008B1A042F8D01CB1002802D06D1CF1E79F
:1006D000284630BD10B5431C02E010F8011B71B173
:1006E0008107FAD14FF0013202C88C1A8C4314EA08
:1006F000C211F9D0C01A0A0603D0C01E10BDC01A1C
:1007000010BD0A0401D0801E10BD0902FCD0401E9D
:1007100010BD40EA010370B59B072ED14FF00136A2
:10072000042A2AD308C810C99D1B9D43121F15EA2D
:10073000C61517D0D8B2E1B2401A50EA056110D1FF
:1007400098B2A1B2401A50EA05410AD123F07F4085
:1007500024F07F41401A50EA052102D1180EA0EB87
:10076000146070BDA342DBD018BA21BA884201D907
:10077000012070BD4FF0FF3070BD0AB9002070BD80
:1007800010F8013B11F8014B63B1A3420AD1521E8C
:1007900008D010F8013B11F8014B1BB1A34201D165
:1007A000521EEDD1181B70BD032A40F2308010F0AC
:1007B000030C00F0158011F8013BBCF1020F6244FC
:1007C00098BF11F801CB00F8013B38BF11F8013B8D
:1007D000A2F1040298BF00F801CB38BF00F8013B3A
:1007E00011F0030300F0D281083AC0F0088051F8FC
:1007F000043B083A51F804CBA0E80810F5E7121DB5
:100800005CBF51F8043B40F8043BAFF30080D207D3
:1008100024BF11F8013B11F801CB48BF11F8012B9F
:1008200024BF00F8013B00F801CB48BF00F8012BC2
:10083000704702F0FF0343EA032242EA024200F05B
:1008400002B84FF000020429C0F0128010F0030C2F
:1008500000F01B80CCF1040CBCF1020F18BF00F8B3
:10086000012BA8BF20F8022BA1EB0C0100F00DB862
:100870005FEAC17C24BF00F8012B00F8012B48BFC0
:1008800000F8012B70474FF0000200B51346944664
:100890009646203922BFA0E80C50A0E80C50B1F1D8
:1008A0002001BFF4F7AF090728BFA0E80C5048BFEC
:1008B0000CC05DF804EB890028BF40F8042B08BF8A
:1008C000704748BF20F8022B11F0804F18BF00F886
:1008D000012B704710B5044610F0030F08BF11F04C
:1008E000030F40F015804FF0013E121FC0F20E8042
:1008F00051F8043BA3EB0E0C2CEA030C1CEACE1CB3
:1009000008BF40F8043BF0D0A1F1040102F1040259
:10091000521E08DB11F8013B00F8013B002BF7D118
:100920001146FFF78EFF204610BD70477047704795
:1009300000487047B8000020704770477047704704
:1009400038B504460A4600206946AFF30080002807
:1009500008BF38BD02460099204600F051F9012039
:1009600038BD012000F08FB9F8B5AFF3008005461F
:1009700000200C460C2000BF0646A819A0420DD945
:10098000324669460020AFF30080070008BF00F040
:100990007AF90098A04218BF0546C419FFF7C8FFAE
:1009A00005600746F01D20F007004619284600F0B4
:1009B0000AF8B44208BFF8BDA21B31463868BDE84A
:1009C000F84000F01DB900210160416070470C2023
:1009D000704710B500F010F9006810BD10B504465E
:1009E00000F00AF9046010BD2DE9F0470D46994664
:1009F0009246044600F124080168880604D5E0699F
:100A000021F01001216000E00120A84201DD471B18
:100A100000E00027A1697A1902EB0900081AA06119
:100A20002078C00602D42046AFF30080002608E0FC
:100A3000D4E901211AF806009047206A401C761C70
:100A400020624E45F4DB2078C0060AD52046AFF37D
:100A5000008006E0D4E9012130209047206A401C44
:100A60002062381EA7F10107F4DC07E0D4E9012178
:100A700018F805009047206A401C2062281EA5F146
:100A80000105F3DC2046AFF300802078000602D594
:100A90000220BDE8F0870120FBE7000001694A1C45
:100AA00002610878704700B58FB0CDE901310021AF
:100AB000059105497944CDE9031011466846FFF7D1
:100AC00087FD0FB000BD0000E5FFFFFFD1E9002367
:100AD0009A4202D2531C0B60107070470FB40B0087
:100AE00010B54FF000048AB00FA900910E99CC60A8
:100AF000234C7C44234A7A44CDE9064200D00423A7
:100B00006FF00042CDE901321F4A7A446B460892E9
:100B10000246002010F029FB0AB010BC5DF814FB5F
:100B2000F0B507464FF0FF301E4615460C463B46D3
:100B300085B06A460091CDE901013146002004905C
:100B400004A8FFF7CBFF04990346601825B109B14B
:100B5000024600E022462A6000290ED0002B02DD6A
:100B60000099814209D03B466A463146001B0094F9
:100B7000CDE9010404A8FFF7B1FF05B0F0BD000006
:100B8000510100006B0100002701000010B5203A60
:100B9000C0F00B80B1E81850A0E81850B1E8185028
:100BA000A0E81850203ABFF4F5AF5FEA027C24BFFA
:100BB000B1E81850A0E8185044BF18C918C0BDE8E3
:100BC00010405FEA827C24BF51F8043B40F8043BAC
:100BD00008BF7047D20728BF31F8023B48BF11F861
:100BE000012B28BF20F8023B48BF00F8012B7047BB
:100BF00000487047B000002000487047B000002057
:100C0000034640688C46002818BF88423CBF034614
:100C10004068F8D318681844884207D00CF10300E4
:100C200020F00700001D411A521A0146081D0A60F3
:100C3000FFF70FBC10B5044600F052F80068005DE5
:100C400000F0010010BD426842B1016811F8013B9B
:100C500023B1521EC0E90012184670470121C1603D
:100C6000881E704742685AB1C368016843B98368F7
:100C70008B4205D0491E521CC0E90012002070476B
:100C80004FF0FF30704710B500F0BCFABDE81040DF
:100C900000F0B3BA70477546FFF7AAFFAE460500ED
:100CA0006946534620F00700854618B020B5FFF787
:100CB000F5FABDE820404FF000064FF000074FF076
:100CC00000084FF0000BAC46ACE8C009ACE8C00926
:100CD000ACE8C009ACE8C00921F007018D467047B7
:100CE00010B500F0FDFA001D10BD00BF85FF00002B
:100CF0002DE9FF4F06468BB00878FF2806D0491C27
:100D00002D2805D000244FF0000908E000200CE059
:100D10000124F8E709EB8903491C00EB4309087833
:100D2000FF28F7D114B1C9F10000814610780025E1
:100D30002C46AA4629462D2801D02B2804D1521C26
:100D40002D2813D0002082468B461078FF280FD024
:100D50004FF0000C0A21521CA5FB017804FB018115
:100D600005FB0C11C5194BEB0104EEE70120EAE786
:100D7000002108464FF00000BAF1000F02D000EB4E
:100D800080004008C0F38157012F01DD4FF0FF378D
:100D90000E9955EA040009EB01080BD04FF0020947
:100DA00018F5FA7F16DA4FEACA70002F706008DD76
:100DB000012007E04FEACA70C6E900B00FB0BDE8F5
:100DC000F08F00203060FFF717FFC0F80090182167
:100DD000084616E0B8F5FA7F18DD002F02DAF7486A
:100DE000784401E0F6487844D0E90010C6E90010E4
:100DF00040EACA707060FFF7FFFEC0F8009014214F
:100E000008460FB0BDE8F04F10F04CB9002108467D
:100E10004FF00000B8F10001099002DAC7F10002BA
:100E200000E03A4601DAC8F1000106A800F070FAC5
:100E300006AB93E8070003AB83E8070044F23E00EB
:100E40005BEA04010090584604D144F21E012C468E
:100E50005D460091210C0904014306D10099240448
:100E600044EA15442D041039009104F07F410143F8
:100E700006D10099240244EA15642D020839009134
:100E800004F07041014306D10099240144EA15742D
:100E90002D01091F009104F04041014306D1009942
:100EA000A40044EA9574AD00891E009104F000414D
:100EB000084304D100986D196441401E00904FF022
:100EC00001033A466846B8F1000FCDE9014503A990
:100ED00002DD0FF0FEFB01E00FF0D1FBBAF1000FD5
:100EE00004460D4601D084F00044002108464FF02E
:100EF0000000099940F2FF77484010F00C0F07D12D
:100F000024F00040284303D0C4F30A50B84212D161
:100F1000FFF772FEC0F80090C4F30A50B8420AD13D
:100F2000A8487844D0E90010C6E9001004F0004158
:100F30000843706042E7C6E900543FE72DE9FF4FE0
:100F40001F464FF0000A4FF0FF38454691B0D7E9F1
:100F50000146CDF83CA000F0C3F9C0680168405CD0
:100F60001090B96912986D1C8847396A8146884784
:100F70000028F6D1B9F1FF3F0AD0002E24F4D06446
:100F800011DDB9F12B0F08D0B9F12D0F0BD102E013
:100F9000404615B013E744F48064B96912986D1C9B
:100FA0008847761E8146600504A901D52D2000E002
:100FB0002B20002E01F1010B0DF130088DF81000EF
:100FC0003FDDB9F1690F08D0B9F1490F05D0B9F18A
:100FD0006E0F02D0B9F14E0F1CD13B4601A800950F
:100FE00080E85002DDE912126FF0020010F0C1F843
:100FF000C11CCED10EE0B96912986D1C884781469C
:101000001398761E44F4007405600F98401C002E5F
:101010000F9016DDB9F1300FEDD0B9F1780F02D095
:10102000B9F1580F0DD10F9801280AD13B46CDE9EF
:101030000054DDE91212001F029610F098F8C11C4E
:10104000A7D1109989453ED144F0800406E0139958
:10105000681CAAF1010A44F400740860B9696D1CA7
:101060001298761E884730288146F0D02BE01099E0
:10107000894505D1200603D4761E44F0800418E08B
:1010800048460FF090FD08B3761E0DF123029345FC
:10109000A9F1300044F4007406D20BF8010B2006CD
:1010A00007D5AAF1010003E0200602D40AF10100ED
:1010B0008246A00502D51399681C0860B969129888
:1010C0006D1C88478146002ED1DC53E0002E51DD97
:1010D000B9F1650F02D0B9F1450F4BD1A00549D543
:1010E000B9696D1C1298761E24F440748847002E4E
:1010F00081460CDD2B2804D0B9F12D0F07D144F423
:101100008074B96912986D1C8847761E8146E00587
:1011100001D52D2100E02B2108F8011BCDF800801E
:1011200021E0761E0DF13901884544F400740CD29B
:10113000A9F1300010F0FF0088F8000002D10099FA
:10114000884509D908F1010806E0E00501D51E48E7
:1011500001E042F20F708246B96912986D1C88470F
:10116000814613980560002E04DD48460FF01BFDF4
:101170000028D6D1F96912988847FF2053468BF88A
:10118000000088F8000000200A900B9004AA0CA927
:101190000AA8FFF7ADFDA00502D46FF00100F8E644
:1011A00014F0240F12D0E0071CD13868DDE90A12D0
:1011B000031D3B600068C0E9001213E0B463010046
:1011C000A66301006A620100F1D8FFFF0AA9684620
:1011D0000FF0D6FCE00705D13868009A011D396090
:1011E000006802602846D4E610B50446AFF30080DC
:1011F0002046BDE81040FFF73DB8002801D000F0C0
:1012000069B8704710B5012805D0002103A000F08F
:10121000F1F8012010BD09A1F8E700005349475239
:10122000544D454D3A204F7574206F6620686561B6
:1012300070206D656D6F7279000000003A2048657E
:101240006170206D656D6F727920636F7272757059
:10125000746564000000000030B44FF0013C50F8A9
:10126000042B51F8043BCCFA52F4D51A20D1FCB926
:1012700050F8042B51F8043BCCFA52F4D51A17D18C
:10128000B4B950F8042B51F8043BCCFA52F4D51AF7
:101290000ED16CB950F8042B51F8043BCCFA52F43F
:1012A000D51A05D1002CDAD030BC4FF000007047C1
:1012B00029BAB1FA81F111F01801D1F1200084406E
:1012C000F2D1CA40CB4012F0FF0213F0FF0330BC52
:1012D000D01A704701491820ABBEFEE72600020075
:1012E00000487047D0000020B2F120030AD5C2F1B7
:1012F000200301FA02F120FA03F341EA030100FAA4
:1013000002F0704700FA03F14FF000007047000050
:101310002DE9F047814616468AB0354878440DC815
:101320008DE80D0032487844801C03AC0DC884E879
:101330000D0041F69B300844372190FBF1F290FB01
:10134000F1F5A5F1800501FB12041B3C02D56442B6
:10135000012000E00020DFF898A080460027FA4432
:10136000AAF1BE0A0EE0E0070AD03246684607EB53
:10137000470101230AEB81010FF096F98DE8070080
:1013800064107F1C002CEED1194F7F44AE3F19E052
:10139000E80715D007EB04100DF1180A90E80E00CD
:1013A0008AE80E00C068F04201D1981908903246D0
:1013B000012306A903A80FF077F903AB83E8070020
:1013C0006D10641C002DE3D14FF0010332466946D5
:1013D000B8F1000F03A802D00FF03CF901E00FF0C4
:1013E00063F9C9E90001C9F808200AB0BDE8F0872F
:1013F00004FF000070B505460C460A2000E06D1C95
:1014000000F011F835B128780028F8D102E0641C0A
:1014100000F009F814B120780028F8D1BDE8704038
:101420000A20AFF3008008B569468DF8000003205C
:10143000ABBE08BD2DE9FF4F1F464FF03C0987B0FA
:101440004FF00042DDE9141001F10108DDF858A069
:1014500002EA40500390002005908346054604466A
:101460000490B969461E08988847AAF1010A0290BB
:10147000BAF1000F3BDD02982E2815D0102100F0A4
:1014800003FA00282EDB4FF0010B0599014317D01A
:10149000B9F1000F0BDB4A46C117FFF725FF0543E3
:1014A0000C43A9F1040905E0012004900BE008B108
:1014B00045F0010501200590049820B9361D02E091
:1014C000049800B1361FB969089808F101088847E7
:1014D000BBF1000FAAF1010A0290C9D00999C1F825
:1014E0000080C5E70298702808D0502806D0F96916
:1014F00008988847BBF1000F14D04FE000200290FD
:101500000120BBF1000F049009D0B969089808F1D7
:1015100001088847AAF10109B9F1000F07DCF96950
:10152000089888476FF001000BB0BDE8F08F2B28BA
:1015300004D02D280CD14FF0FF300490B9690898E1
:1015400008F101088847A9F10109B9F1000FE6DDAA
:10155000411CE4D00A2100F097F90028DFDB029952
:1015600008F1010801EB810100EB41000290B9692B
:10157000089888470A2100F087F9099AA9F101091A
:10158000B9F1000FC2F8008001DD0028E7DAF9693F
:10159000089888470499029800FB016655EA040000
:1015A00004D004F04041090002D006E0039898E01E
:1015B000A40044EA9574AD00B61E04F00041080092
:1015C00002D16D196441761E159810F0240F03D0D6
:1015D0004FF00B095C4803E04FF028096FF07D00E5
:1015E0008246564507DAAAEB06018944B9F1410F54
:1015F00001DD4FF0410901200021A9F10102FFF7AF
:1016000073FE024628400B462140084301D00121C9
:1016100000E00021501E029143F1FF31284021409B
:10162000084301D0012000E000200299834651EADE
:101630000B014FD0002108464FF00000039900F441
:10164000400039B100EB80004FF4400100EBD07056
:1016500001EA60008015012802DD4FF0FF3000E054
:1016600013D0401C36D0029860B3BBF1000F0CD1F0
:101670004A4601200021FFF737FE28402140084359
:1016800001D0012000E00020E0B101204A46002105
:10169000FFF72AFE034640190A4661412D1A8C4184
:1016A00011D3B9F1400F09DD159810F0240F02D0C5
:1016B000AAF1340603E0AAF1170600E0761C002523
:1016C0004FF0004406E05B1E42F1FF3220EA0305C2
:1016D00021EA0204CAF10100B04206DA1B4903986C
:1016E00008430190002000900EE0039AC4F3D32138
:1016F000E80A0A43164940EA44500A433146CDE914
:10170000000268460FF045FA159810F0240F0BD030
:101710001598C00715D13868DDE90012031D3B603C
:101720000068C0E900120CE002A869460FF028FA30
:101730001598C00705D13868029A011D3960006804
:1017400002604046F0E6000002FCFFFF0000F07F70
:101750000000F03F2DE9FF4F92461D4685B04FF047
:101760000041DDE9124BDDE914727F1E01EA4B50A6
:10177000414940F0FF4940EA0108002122F02000E1
:101780004928049102D04E2828D04CE03BA00126E5
:1017900007C88DE80700A9690698641C88477F1E62
:1017A000014606D41DF8060018B121F0200181423F
:1017B0000BD0E96906988847032E34D0082E32D022
:1017C0006FF0010009B0BDE8F08F761C032E01D048
:1017D000082EE0D1601CCAF80000DCE7A969069871
:1017E000641C88477F1E2AD420F02000412826D17F
:1017F000A9690698641C88477F1E20D420F0200029
:101800004E281CD1A9690698641C88477F1E48F49D
:10181000002849F48009CAF8004001D4282806D0DD
:10182000E969069888475FEACB7012D022E0A9697F
:101830000698641C88477F1E01D4002803DAE969F2
:1018400006988847BCE72928F1D1641CCAF80040F3
:10185000E9E71BF0240F07D028680499031D2B60CB
:101860000068C0E9001805E02868021D2A600068C9
:10187000C0F800902046A5E70000F07F494E464999
:101880004E495459000000003A2800D2303820F068
:101890002002412A01D3A2F13700884201D34FF040
:1018A000FF30704780B582B0FEF70AFD0CF02CFEC9
:1018B0000DF08AFB0DF0BAFC0DF072FC46F6B63066
:1018C0004DF6C5214FF0140C4FF00A0EC0F6010082
:1018D000C0F6000100224FF40073CDE900EC0DF0DA
:1018E000AFFC0DF05BFE0DF0A9FC0DF05FFD0DF0FF
:1018F00081FC002002B080BD0146806B036C026C4D
:1019000013F0500F08D0D20648BF02F0BFB8806B6A
:10191000C26C0846104700BF42F4007101640168C0
:101920008A6812F0405F01D002F06CB8027E002A93
:10193000FAD1CA6A12F4700F02D08A685205F3D441
:101940004A6822F020024A60016C21F4807101642F
:10195000016CC90448BF02F055B8016C41F00101A7
:10196000016402F04FB80000806B40210164416CBB
:1019700041F00401416402F089B80000806B02F07C
:1019800083B8000070B50024C0F60204206840F25D
:1019900032150130C2F2000520D1606801301DD13E
:1019A000A06801301AD14AF25A50C0F28C502E462B
:1019B00046F8020F0C20C4F20320B06040F2D6605B
:1019C000C0F21450706030460A2100F067FD318982
:1019D00070818A08204631460EF036FA20682E467D
:1019E00046F8020F0420C0F602000068706008206C
:1019F000C0F602000068B060023881B2304600F0E4
:101A00004DFD31785A2907D17178A52904D1718902
:101A1000884201D1002070BD4AF25A50C0F28C5069
:101A200045F8020F0C20C4F20320A86040F2D660F3
:101A3000C0F21450686028460A2100F02FFD298961
:101A400068818A08204629460EF0FEF9002070BD04
:101A5000B0B540F23214C2F20004207801281BD144
:101A6000002004F8020B0C202081FEF729FC2189BC
:101A70000546881E81B2204600F010FD2189608154
:101A800000208A08C0F6020021460EF0DDF9284643
:101A9000FEF71AFC0020B0BD042824BF00202070EF
:101AA0000020B0BD80B506F0FBFE06F073FE07F027
:101AB000D9FA07F0F5FA07F015FB07F051FB06F02D
:101AC00025FE06F045FE06F0E5FF06F0E7FD07F00F
:101AD00051F907F00BFA07F061FB07F023FB06F062
:101AE000FDFF07F0D5F807F00BF900F021F808F03A
:101AF0003DF8002080BD000040F21810C2F2000046
:101B000090ED010AB2EE061AB8EE400A9FED072AE0
:101B100020EE010A80EE020A40F24400C2F2000008
:101B200080ED000A90ED000A704700BF00007A4483
:101B300010B540F20434C2F2000420464FF4A07104
:101B4000FEF7A1FE42F29C30C2F200002146502274
:101B5000BDE8104002F0A4B880B506F0D7FDBDE89E
:101B6000804006F0F5BD000080B58AB00020CDE9C8
:101B70000500CDE90000CDE9020004900E2001210E
:101B8000099042F2E430CDE90711C2F20000694643
:101B900002F0CEF9002818BF01F03AFC42F2E4301E
:101BA000C2F2000002F0AAFD002818BF01F030FCCC
:101BB00042F2E430C2F20000022102F041F90028B2
:101BC00018BF01F025FC0E20059042F20C40C2F235
:101BD0000000694602F0ACF9002818BF01F018FCBB
:101BE00042F20C40C2F2000002F088FD002818BF4B
:101BF00001F00EFC42F20C40C2F20000022102F0A1
:101C00001FF9002818BF01F003FC0AB080BD0000D6
:101C100042F2E43042F20C41C2F20000C2F2000192
:101C2000406A496A0844704770B50446D0F8B80065
:101C300090F83D30202B1CBF022070BD0D46462A77
:101C4000A4F8AA2006D820462946FEF7ADFDD4F810
:101C5000B800254604F080FF43F23436C2F2000695
:101C6000B44208D140F60000C4F202004FF4807183
:101C7000012203F081FAD4F8B800B4F8AA2029466A
:101C800006F014F820B10546B4420BD0284670BDCA
:101C9000B4F8AA00D4F8B0100844C4F8B00000208A
:101CA00070BD00BF40F60000C4F202004FF4807126
:101CB000002203F061FA284670BD0000F0B581B043
:101CC0000E46CC2115460446FEF7DDFD42F638707F
:101CD000C2F2000084424DD043F20400C2F2000080
:101CE000844255D043F2D000C2F2000084425DD05D
:101CF00043F29C10C2F20000844265D043F2682097
:101D0000C2F20000844200F0898043F23437C2F20C
:101D10000007BC426AD142F66040C2F2000042F6BF
:101D2000B40142F6540207F1B803C2F20001C2F254
:101D3000000247C3C7F8C8507EB107F146013222FE
:101D400005F058FD002818BF01F062FBD7F8B80075
:101D50000068C16841F01001C16040F60000C4F2A3
:101D600002004FF48071002201B0BDE8F04003F0A2
:101D700003BA00BF42F60C3142F2746242F21463BD
:101D8000C2F20001C2F20002C2F2000328E000BF6A
:101D900042F6503142F2347242F2D463C2F2000190
:101DA000C2F20002C2F200031AE000BF42F6943110
:101DB00042F2F47242F29473C2F20001C2F20002E3
:101DC000C2F200030CE000BF42F6D83142F2545296
:101DD00042F2F443C2F20001C2F20002C2F2000376
:101DE000C0F8B810C0F8BC20C0F8C030C4E93165F4
:101DF0008EB1D4F8B80004F14601322205F0FAFCA5
:101E0000002818BF01F004FBD4F8B8000068C168CE
:101E100041F01001C16001B0F0BD00BF42F61C41AD
:101E200042F2B452C2F20001C2F20002C0E92E1224
:101E3000002EC4E93165DCD1EDE70000FEE70000CB
:101E400042F2E430C2F2000002F072B942F20C40F9
:101E5000C2F2000002F06CB92DE9F04381B041F606
:101E6000786940F22E1804460025C2F20009C2F239
:101E700000080CE001F0F801B8F80220FB880331FB
:101E80000170D01A388100BF0135242D5ED0C5EB1A
:101E9000C50009EB80073869E1688842F4D139460A
:101EA00051F8183F11F8162C63B3E378B3EB121F07
:101EB000EAD1102A2BD3032022180B68567803444A
:101EC00003F8036CE378861E9E4218D20B6896785E
:101ED000034403F8026CE378461E9E420FD20B685F
:101EE000D678034403F8016CE378984207D212795C
:101EF0000B681A54E278431C04309342DCD3E06848
:101F000005E000BF102ABFD3A1780229BCD101F09F
:101F1000CDFC786910B9B8780007B5D0384610F80C
:101F2000031FC1F34112022AA4D0012A06D0002ABD
:101F3000AAD1B8F80200F988401AA3E701F0060216
:101F4000042A04BF41F0060101709DE701B0BDE81D
:101F5000F083000080B540F22E10C2F200004FF472
:101F6000FA61418006F0A2FABDE88040FFF7FCBDAF
:101F70002DE9F04186B002A800F02CF910B102A8BA
:101F8000FFF76AFF01F090FC40F22E18C2F2000841
:101F9000B8F802004FF6104141F67865CFF6FF71B0
:101FA000C2F200050DE000BFB6F8F43302F0F9020A
:101FB00023F4FE73A6F8F43386F8F3231C3100F003
:101FC000BC806E1896F8F323D307F7D0C2F3C10391
:101FD000012B0BD0002BF1D1C2F34103022B2BD0EC
:101FE000032BE1D0012BE9D164E000BFB6F8F84340
:101FF000B6F8F6331F19BBB2BB4203D0A04203D3DD
:1020000008E000BFA04201D3834203D802F00607D4
:10201000022F4FD0C2F34107032F1FD0022FCDD183
:10202000B6F8F4C3A3422CF4E077A6F8F47327D2F1
:10203000A04227D3C2E700BFB6F8F843B6F8F6735C
:10204000B6F8F4C33B199FB29F422CF4E073A6F894
:10205000F4330FD0A0420FD3B0E700BFB6F8F4338B
:1020600002F0F90223F4FE730232A6F8F433A6F864
:10207000F803A1E7A04208D387429FD805E000BF3C
:10208000A04202D383423FF699AF02F0F9020CF06E
:1020900038030232272B86F8F3233FF68FAF0CF17B
:1020A000040202F03C022CF4FE731A44A6F8F42356
:1020B00084E700BFD6F8043496F8F243B3FA83F00D
:1020C0004009420096F8F10396F8F073411E18BFDC
:1020D0000121D6F8FC03890004F00F04CDE9004784
:1020E00000F052F880B996F8F303C0F3411139B10A
:1020F000022905D0012907D100F0F900043001E0E0
:1021000040F0060086F8F303B6F8F403C0F382113A
:1021100004290ED896F8F31301F00601022908D11C
:1021200000F1400101F4E07120F4E0700844A6F8E9
:10213000F403B8F80200A6F8F8030026042400BF50
:10214000285B00F4E071B1F5807F82BF46F00206A3
:1021500020F4E0702853FFF75BFD002804F11C0415
:1021600018BF46F00406B4F57D7FE9D1300603D0F0
:10217000FFF7F2FCFFF7F8FC98F80000304388F80E
:10218000000006B0BDE8F081B0B588B01D46DDE9BD
:102190000C3C42F20C44082B28BF0823CDE9020076
:1021A00004A80EC042F2E430C2F20000C2F2000401
:1021B000BCF1000F08BF044602A901AB20462A4625
:1021C00001F056FE054610B1204602F0EBF9284614
:1021D00008B0B0BD40F24C41C2F200010A784B7821
:1021E0009A4204BF0020704780B501EB021202F151
:1021F000040E9EE80850126980E80850C260087812
:1022000040F6CD4201304243120C02EB8202A0EBB9
:1022100082000870012080BD41F67861C0EBC000EB
:10222000C2F2000101EB800010F8031F11F0180F3B
:1022300018BF704701F0F9010231017070470000CA
:1022400040F27819C2F2000909F1300443F220414A
:10225000C2F2000120464FF4806248F2050509F001
:102260005DFC43F65857C2F200074FF0FF3AA7F162
:10227000030B07F1140805E0B85A3880022089F8EA
:10228000000000BF204609F0A9FC002800F0DC8017
:10229000204609F025FC99F9002022EAE2714B1C46
:1022A000012A89F800307854ECDB5AFA81F2BB5CE1
:1022B0005A2B08BF4428DFD01629E3D338785A2890
:1022C0004FF0000040F0BD807978442940F0B9809B
:1022D0000022584610F8031F82EA01210AB24B007F
:1022E000002A48BF85EA410319B25A00002948BFB5
:1022F00085EA430211B25300002948BF85EA420330
:1023000019B25A00002948BF85EA430211B25300AE
:10231000002948BF85EA420319B25A00002948BF84
:1023200085EA430211B25300002948BF85EA4203FF
:1023300019B2002941784FEA430248BF85EA4302B7
:1023400082EA01210AB24B00002A48BF85EA410314
:1023500019B25A00002948BF85EA430211B253005E
:10236000002948BF85EA420319B25A00002948BF34
:1023700085EA430211B25300002948BF85EA4203AF
:1023800019B25A00002948BF85EA430211B253002E
:10239000002948BF85EA420319B2002901464FEAE5
:1023A000430211F8026F48BF85EA430282EA06221F
:1023B00013B25600002B48BF85EA420632B27300C2
:1023C000002A48BF85EA46031AB25E00002A48BFC9
:1023D00085EA430632B27300002A48BF85EA460305
:1023E0001AB25E00002A48BF85EA430632B2730083
:1023F000002A48BF85EA46031AB25E00002A48BF99
:1024000085EA430633B27200002B48BF85EA4602D4
:1024100041457FF45FAFB7F8150091B281420FD10B
:1024200097E84F0009F1180C8CE80700B88AC9F842
:102430002430A9F82C00B87DC9F8286089F82E004E
:10244000002089F800001DE7B9F8040003280DD822
:102450000AA151F820100DA252F82000B1F9001085
:1024600007F0ACF8B9F80400013000E00020A9F84A
:1024700004000A200DF024F804E700BF92010020B8
:102480009401002096010020980100209005002072
:10249000C0050020F00500202006002081B1F0B525
:1024A00046F2984346F2985E01F0030C0429C0F608
:1024B0000103C0F6010E0BD2FF21FF2231E000BF65
:1024C000FF22FF21C8B240EA022080B2704700BF5D
:1024D00021F003040025FF21FF2200BF10F8046B48
:1024E000D2B272409E5C10F8037CC9B27140794050
:1024F0001EF802205E5C10F8027C72407A401EF8E2
:1025000001109E5C10F8017C714079401EF8022099
:102510005E5C04351EF80110AFB2A74282EA0602E3
:10252000DCD1BCF1000F1CD00478D2B254401A5D4B
:10253000BCF1010F82EA01021EF8041011D04478A8
:10254000D2B254401A5DBCF1020F82EA01021EF8B9
:10255000041006D08078D2B250401A5C4A401EF86F
:102560000010BDE8F040C8B240EA022080B27047D7
:1025700042F29470C2F2000002F058B942F2F44004
:10258000C2F2000002F052B942F2F470C2F200004E
:1025900002F04CB942F25450C2F2000002F046B9C7
:1025A00042F2D460C2F2000002F040B942F234704C
:1025B000C2F2000002F03AB942F2B450C2F2000096
:1025C00002F034B942F23440C2F2000002F02EB9F7
:1025D00042F29440C2F2000002F028B942F65400E0
:1025E000C2F2000002F022B942F21460C2F200000E
:1025F00002F01CB942F6B400C2F2000002F016B9B3
:1026000042F27460C2F2000002F010B9704700009C
:10261000B0B582B040F24805C2F2000528881F28F4
:1026200008D0B0F5784F07D0B0F5FC6F0DD102237C
:1026300003E000BF032300E0012301240020002168
:102640004022009401940AF06DFC68881F2807D08E
:10265000B0F5784F06D0B0F5FC6F0CD1022302E044
:10266000032300E001230124642000214022009480
:1026700001940AF057FCA8881F2807D0B0F5784FBE
:1026800006D0B0F5FC6F0CD1022302E0032300E07A
:1026900001230124C82000214022009401940AF063
:1026A00041FCE8881F2807D0B0F5784F06D0B0F578
:1026B000FC6F0CD1022302E0032300E0012301247C
:1026C0000020AF214022009401940AF02BFC2889BD
:1026D0001F2807D0B0F5784F06D0B0F5FC6F0CD1AD
:1026E000022302E0032300E0012301246420AF2140
:1026F0004022009401940AF015FC68891F2807D035
:10270000B0F5784F06D0B0F5FC6F0CD1022302E093
:10271000032300E001230125C820AF2140220095BA
:1027200001950AF0FFFB04A364205A21402202B065
:10273000BDE8B0400AF018BD2B00000070B582B0B3
:1027400040F2100440F2E410C2F20004C2F20000B1
:10275000617840780025814218BF6070B4F9283054
:1027600004265C2002210C22CDE900650AF0DAFB88
:10277000B4F92A305C2012210C22CDE900650AF060
:10278000D1FBB4F92C305C2022210C22CDE900656C
:102790000AF0C8FBB4F92E305C2032210C22CDE9BE
:1027A00000650AF0BFFBB4F930305C2042210C22F6
:1027B000CDE900650AF0B6FBB4F932305C20522155
:1027C0000C22CDE900650AF0ADFB02B070BD00003F
:1027D000B0B540F2E414C2F20004A078002818BF9B
:1027E000B0BD1F2009F04EFE00206070207840F23E
:1027F0001005C2F20005FF216970C8B141F26421E1
:10280000C0F6010151F820100238052861610BD88B
:10281000DFE800F004183A40789800BF4FF0FF302E
:10282000C5E90400C5E906000120A070B0BD00BFE5
:102830000120207042F69160C0F600006061012026
:10284000A070B0BD46F68733C0F60103062005210F
:102850000C220AF089FC46F67133C0F6010302200F
:1028600025210C220AF080FC46F67E33C0F60103D7
:10287000022035210C220AF077FC46F65A33C0F6C6
:1028800001031020652152E04FF05A3068600120AA
:10289000A070B0BD46F69C33C0F601031A200A2191
:1028A0000C220AF061FC46F6A733C0F601032A2089
:1028B0001A210C220AF058FC46F66A33C0F60103CE
:1028C000022042210C220AF04FFC5AA3422042214E
:1028D0000C220AF049FC59A302205A210C220AF0CA
:1028E00043FC58A342205A210C220AF03DFCA06967
:1028F0006438E0614FF0FF30C5E908000120A070A6
:10290000B0BD00BF3DA3282005210C220AF02CFCFD
:102910003CA3022015210C220AF026FC3DA3022034
:1029200025210C220AF020FC3EA3022035210C2296
:102930000AF01AFC4FF0FF30A860A8810120A070B7
:10294000B0BD00BF15A3022002210C220AF00CFC2E
:1029500016A3022012210C220AF006FC17A3022063
:1029600022210C220AF000FC18A3022032210C22A2
:102970000AF0FAFB19A3022042210C220AF0F4FB10
:102980001AA3022052210C220AF0EEFB4FF0FF3076
:10299000C5E90A0028630120A070B0BD425553313B
:1029A000506F736974696F6E3A000000425553327C
:1029B000506F736974696F6E3A000000425553336B
:1029C000506F736974696F6E3A000000425553345A
:1029D000506F736974696F6E3A0000004255533549
:1029E000506F736974696F6E3A0000004255533638
:1029F000506F736974696F6E3A0000004D50553620
:102A000030353000526F6C6C203A202020202E2070
:102A10004300000050697463683A202020202E2073
:102A20004300000059617720203A202020202E20EA
:102A30004300000044415441323A000044415441B3
:102A4000333A000044415441343A0000F0B583B0B9
:102A500040F2100540F2E417C2F20005C2F200078E
:102A60006978787881427AD00028687019BF1F2071
:102A70004FF6FF714FF6FF701F2109F047FE46F237
:102A8000A064C0F60104022002210C2223460AF0B1
:102A90006BFB1F204FF6FF7109F038FE04F138037D
:102AA000022052210C220AF05FFB6878012807BF40
:102AB0004FF6FF701F211F204FF6FF7109F026FE11
:102AC00004F10E03022016210C220AF04DFB1F20F8
:102AD0004FF6FF7109F01AFE04F14603422052211D
:102AE0000C220AF041FB6878022807BF4FF6FF70FE
:102AF0001F211F204FF6FF7109F008FE04F11C038F
:102B000002202A210C220AF02FFB1F204FF6FF7112
:102B100009F0FCFD04F15403022066210C220AF0A6
:102B200023FB6878032807BF4FF6FF701F211F2083
:102B30004FF6FF7109F0EAFD04F12A0302203E215D
:102B40000C220AF011FB1F204FF6FF7109F0DEFD89
:102B500004F16203422066210C220AF005FBB7F95A
:102B60002030298A98B2814209D028820024042684
:102B7000562002210C22CDE900640AF0D1FAB7F9FF
:102B80002830298B98B2814209D02883002604245A
:102B9000282052210C22CDE900460AF0C1FAB7F9EB
:102BA0002230698A98B2814209D0688200260424C2
:102BB000562016210C22CDE900460AF0B1FAB7F9E9
:102BC0002A30698B98B2814209D068830026042498
:102BD000682052210C22CDE900460AF0A1FAB7F98B
:102BE0002430A98A98B2814209D0A8820026042400
:102BF00056202A210C22CDE900460AF091FAB7F9B5
:102C00002C30A98B98B2814209D0A88300260424D5
:102C1000282066210C22CDE900460AF081FAB7F996
:102C20002630E98A98B2814209D0E882002604243D
:102C300056203E210C22CDE900460AF071FAB7F980
:102C40002E30E98B98B2814209D0E8830027042610
:102C5000682066210C22CDE900670AF061FA03B012
:102C6000F0BD0000B0B582B040F2100040F2E411B7
:102C7000C2F20000C2F200014278497840F25C14CE
:102C80008A4218BF4170C2F20004236853B1002584
:102C90004FF0040C482025210C22CDE900C50AF094
:102CA00041F9256040F24810C2F20000017819B3E2
:102CB0000021017011A3342035210C220AF054FAAE
:102CC00040F2755008F062FE782001F093FF4FF457
:102CD000C46008F05BFE642001F08CFF4FF4DC6000
:102CE00008F054FE782001F085FF002002B0BDE816
:102CF000B04008F04BBE00BF02B0B0BD446F6E657F
:102D0000210000002DE9F04182B040F2100540F2B0
:102D1000E410C2F20005C2F200006978407840F287
:102D20005866814218BF6870C2F200062989B6F958
:102D30000E0081420CD16989B6F9100081423DD163
:102D4000A989B6F9120081426ED102B0BDE8F081C6
:102D500080B2B4212881484300EE100A9FED4B1A3F
:102D6000B8EEC00A20EE010AB2EE041A20EE010A03
:102D7000BDEEC00A10EE107A4CF6CD407843C40C7C
:102D80004FF000084FF0030C2A2015210C22234697
:102D9000CDE900C80AF0C6F804EB8400A7EB4000B8
:102DA00083B20127412015210C22CDE900780AF0D9
:102DB000B9F86989B6F910008142C1D080B2B42156
:102DC0006881484300EE100A9FED301AB8EEC00A41
:102DD00020EE010AB2EE041A20EE010ABDEEC00A8E
:102DE00010EE107A4CF6CD407843C40C4FF000083A
:102DF0004FF0030C2A2025210C222346CDE900C8E0
:102E00000AF090F804EB8400A7EB400083B201279E
:102E1000412025210C22CDE900780AF083F8A98908
:102E2000B6F91200814290D080B2B421A881484303
:102E300000EE100A9FED151AB8EEC00A20EE010A46
:102E4000B2EE041A20EE010ABDEEC00A10EE105ACE
:102E50004CF6CD406843C40C002603272A203521B8
:102E60000C222346CDE900760AF05CF804EB8400DE
:102E7000A5EB400083B20127412035210C22CDE98A
:102E800000760AF04FF802B0BDE8F081000000388B
:102E90002DE9F04182B040F27910C2F200000178D1
:102EA00040F2E4180129C2F2000837D142F2C821E9
:102EB000C2F200010D780022002D027000F05C804B
:102EC0004FF6000C40F24802481C0024CFF6FF7C6D
:102ED000C2F2000200230026A5F13107032F14D807
:102EE000322D614608BF4FF4FC61332D04EB4405DD
:102EF00008BF1F21DFB202EB4505013325F817108B
:102F0000D9B2022984BF0136002310F8015BC8271B
:102F1000002D32D0F4B2022CDED32EE0B8F80670C9
:102F2000002F2AD140F21005C2F20005697898F806
:102F30000100814230D1B8F80400411C1428A8F8DF
:102F400004103CD8DFE800F02C3B3B3B3B3B0C3B08
:102F50003B3B3B3B3B823B3B3B3B3B3B8E0000BF19
:102F600040F24440C2F20000B0F9023000270526CA
:102F70000A2012211EE000BFC82740F20800C2F25A
:102F800000000088791EA8F8061009F07BFA02B04C
:102F9000BDE8F041FFF73CBB68700120A8F80400D1
:102FA00040F24440C2F20000B0F90030002705268C
:102FB0000A2002210C22CDE900670AF0B1F842F2A2
:102FC0001031C2F20001087840F208060128C2F26E
:102FD00000060AD1308800222A700A7009F052FADD
:102FE000FFF716FB1F20A8F8040040F25814C2F2A5
:102FF0000004206801281CBF02B0BDE8F0814FF436
:10300000DC6008F0C3FC782001F0F4FD4FF4C460EC
:1030100008F0BCFC642001F0EDFD40F2755008F0B2
:10302000B5FC782001F0E6FD002008F0AFFC308808
:103030000221216009F026FA17A30C2078210C2226
:1030400002B0BDE8F0410AF08FB800BF40F2444042
:10305000C2F20000B0F90430002705260A20222120
:10306000A8E700BF06F0C6F80346002405260A209C
:1030700032210C22CDE900640AF052F806F0C6F8BD
:1030800003460A2042210C22CDE900640AF048F8E8
:10309000A8F8044093E700BF436C69636B204B358D
:1030A00020746F2053746172740000002DE9F04F9A
:1030B00081B040F2100940F2E410C2F20009C2F2FD
:1030C000000099F80110407881424FD0002889F81B
:1030D000010019BF1F204FF6FF714FF6FF701F212F
:1030E00009F014FB46F2A064C0F6010404F1700379
:1030F000022002210C220AF037F899F80100012879
:1031000007BF4FF6FF701F211F204FF6FF7109F018
:10311000FDFA04F17E03022020210C220AF024F89B
:1031200099F80100022807BF4FF6FF701F211F20EA
:103130004FF6FF7109F0EAFA04F18C0302203E21F8
:103140000C220AF011F899F80100032807BF4FF686
:10315000FF701F211F204FF6FF7109F0D7FA04F10D
:103160009A0302205C210C2209F0FEFF46F6AE35E0
:1031700046F6B2364FF0000B4FF0100AC0F60105CC
:10318000C0F60106002792E002284FF4FC6004BF5D
:103190004FF60000CFF6FF7081B21F2009F0B6FA9B
:1031A000207CC7EB07110AEB410188F80400C00737
:1031B0008CB232464FF0020021464FF0100308BF98
:1031C0002A46CDF800B005F0B3F998F8040032466D
:1031D00080074FF0120021464FF0100358BF2A46D7
:1031E000CDF800B005F0A4F998F804003246400785
:1031F0004FF0220021464FF0100358BF2A46CDF869
:1032000000B005F095F998F80400324600074FF039
:10321000320021464FF0100358BF2A46CDF800B0C7
:1032200005F086F998F804003246C0064FF04200D7
:1032300021464FF0100358BF2A46CDF800B005F0E4
:1032400077F998F80400324680064FF05200214684
:103250004FF0100358BF2A46CDF800B005F068F9CA
:1032600098F80400324640064FF0620021464FF0C5
:10327000100358BF2A46CDF800B005F059F998F967
:1032800004003246B0F1FF3F4FF0720021464FF08C
:103290001003C8BF2A46CDF800B005F049F91F2039
:1032A0004FF6FF7109F032FA0137042F12D040F2C5
:1032B000E410C2F20000C41909EB0708217C98F859
:1032C0000420207B91427FF45FAF0228ECD14FF4C1
:1032D000784061E701B0BDE8F08F000070B582B0C2
:1032E00040F2100440F2E410C2F20004C2F2000006
:1032F000627841788A4218BF6170D0E90610642272
:1033000007F088FB08B3238C0025042626204221E1
:103310000C22CDE9006509F005FE638C6620422190
:103320000C22CDE9006509F0FDFDA38C26205A2171
:103330000C22CDE9006509F0F5FDE38C66205A21E9
:103340000C22CDE9006509F0EDFD02B070BD000072
:1033500080B54FF4805001F035FE4FF4005001F07D
:1033600031FE4FF4804001F02DFE4FF40040BDE8E7
:10337000804001F027BE0000A0F58051000540EA22
:103380001130072888BF7047C1B28B2222FA01F1A1
:10339000C90701D1704700BF02A151F8200005F014
:1033A00013B800BFD83D0020243E0020D83D0020A7
:1033B000703E0020D83D0020D83D0020D83D0020A0
:1033C000BC3E002040F25461C2F200010860704728
:1033D00040F61040C4F202000068C0F300307047AD
:1033E00040F61040C4F202000068C0F3403070475D
:1033F00040F61040C4F202000068C0F3803070470D
:1034000040F61040C4F202000068C0F3C0307047BC
:10341000EFF3108072B600BFFEE70000F0B581B098
:1034200043F20047044643F60C46C2F20007002070
:10343000C4F20206F86101F0A5FE3168C9031BD48D
:103440003068C0071CBF01203060306810F0F20FF8
:103450002ED03068C00633D43068800639D4306846
:1034600040063FD43068000645D4306880074BD40E
:10347000012001B0F0BD00BFF4B10546601C0DD1C4
:103480003068C003DCD53068C00344BF30685FEAF1
:10349000C030D5D53068C003F2D4D1E701F072FE58
:1034A000401BA04208D83068C003F7D4C8E700BF6B
:1034B000002001B0F0BD00BF032001B0F0BD00BF8F
:1034C000F86940F01000F861102030603068800624
:1034D000C5D5F86940F00800F861202030603068F8
:1034E0004006BFD5F86940F00400F8614020306024
:1034F00030680006B9D5F86940F00200F861802014
:10350000306030688007B3D5F86940F02000F8617A
:1035100002203060012001B0F0BD00002DE9F04F25
:1035200087B0049313780290A12B40F0B98146F63E
:103530004263C0F6010340F2080540F2506642F6CD
:103540002C5ADDF808900C4603F1020CA120C2F2BF
:103550000005C2F20006C2F2000A00270392A12869
:1035600040F0948107EB071003EB4000407851785E
:10357000884240F08B81B5F802B00498B6F800801C
:1035800000284FEA1B2E0597CDF818C000F0B08038
:10359000029A00231CF90370B7F1FF3F0BDC1FFAFE
:1035A00088F00AEB400108F101080AF810E081F800
:1035B00001B0A6F8008009F1010080B2801A10283D
:1035C00000F08E80FDB268060BD51FFA88F00AEB7A
:1035D000400108F101080AF810E081F801B0A6F8EE
:1035E000008009F1020080B2801A102878D0A80665
:1035F0000BD51FFA88F00AEB400108F101080AF820
:1036000010E081F801B0A6F8008009F1030080B253
:10361000801A102864D0E8060BD51FFA88F00AEB50
:10362000400108F101080AF810E081F801B0A6F89D
:10363000008009F1040080B2801A102850D02807B9
:103640000BD51FFA88F00AEB400108F101080AF8CF
:1036500010E081F801B0A6F8008009F1050080B201
:10366000801A10283CD068070BD51FFA88F00AEBA7
:10367000400108F101080AF810E081F801B0A6F84D
:10368000008009F1060080B2801A102828D0A8070F
:103690000BD51FFA88F00AEB400108F101080AF87F
:1036A00010E081F801B0A6F8008009F1070080B2AF
:1036B000801A102814D0E8070BD01FFA88F00AEB04
:1036C000400108F101080AF810E081F801B0A6F8FD
:1036D000008009F108091FFA89F0801A102801D129
:1036E000013491460133202B7FF454AF92E000BFA8
:1036F0002B884FF0FF361D0A019400BF0CEB060724
:1037000097F901701FFA88F40AEB44007246DC4610
:10371000B7F1FF3FC4BF2A469C4680F801C008F1BC
:1037200001000AF8142017F0400280B2744659468E
:10373000DDF818C00AEB400204BF2C4619460AF80F
:10374000104008F10200517017F0200180B272465B
:103750005C460AEB400104BF2A461C460AF81020CA
:1037600008F103004C7017F0100180B272465C46FD
:103770000AEB400104BF2A461C460AF8102008F153
:1037800004004C7017F0080180B272465C460AEBE8
:10379000400104BF2A461C460AF8102008F1050023
:1037A0004C7017F0040180B272465C460AEB40018F
:1037B00004BF2A461C460AF8102008F106004C7087
:1037C00017F0020180B272465C460AEB400104BF6A
:1037D0002A461C460AF8102008F107004C7017F022
:1037E000010180B272465F4606F101060AEB400114
:1037F00004BF2A461F461F2E08F108080AF81020A9
:103800004F707FF47BAF40F25066C2F20006019C1D
:10381000A6F8008009F10F0204F10F031FFA89F0E6
:10382000A1B292B29BB2274608F08CFD34880026E4
:10383000C4F20206304640210122650001F09CFCE2
:1038400030461021002201F097FC42F64C10E300B4
:10385000AAB2C2F20000514602F0DAF8304640F255
:10386000506610210122C2F2000601F085FCDDF84D
:1038700018C03C46039A46F6426340F20805059F8D
:103880000020C0F60103C2F2000530800137102F7E
:1038900006D010780CF1220CA1283FF463AEF5E7B6
:1038A00007B0BDE8F08F000070470000014641F608
:1038B0007860C2F2000005F069BD000070B581B00B
:1038C0000022009290F83C20012A03D102210846F0
:1038D00001B070BD0E6801220A2E80F83C2009D389
:1038E000B2B25200D0F800E012FA86F21E3A0EF19F
:1038F0000C0305E0D0F800E006EB46020EF11003E1
:103900004FF0070C1D680CFA02F4A5431D608D688A
:103910001C6805FA02F222431A60496806290FD88A
:1039200001EB81014A1F71461F2351F8345F934018
:1039300025EA03030B60B3B203FA02F214E000BFFE
:1039400001EB81030C29B2B204D8714651F8304F13
:10395000233B03E0714651F82C4F413B1F259D400E
:1039600024EA05059A400D600B6842F2043CC4F25B
:10397000010C1A43ACF541739E450A603BD1122EEF
:1039800006D1DCF8001041F48001CCF8001032E0E0
:1039900026F0010110292ED1DCF80010102E41F480
:1039A0000001CCF8001026D140F25801C2F200010B
:1039B00009684DF68362C4F21B32A1FB0212910C1E
:1039C00001EB8101490000910099A1B100990139F1
:1039D0000091009979B1009901390091009951B194
:1039E000009901390091009929B10099013900919C
:1039F00000990029EAD1002180F83C10084601B066
:103A000070BD000070B540F20430C2F20000D0E991
:103A100000C2D0E902316244D0E904E41A441144FE
:103A2000D0E90656714421442944D0E908023144C2
:103A300008444CF6CD411044CCF6CC41A0FB01012A
:103A4000C80840F6E441484340F20111C0F21001B9
:103A5000A0FB0112801A02EB500140F21812C2F2D0
:103A60000002D2E900369068C6EB461606EBD1217B
:103A700019444B0901F01F010028C2E9001308BFD7
:103A800070BDBDE8704000477047000070470000FF
:103A9000002804BF0120704710B50446006C0028C0
:103AA0003ED0206CC00645D4206C41F20211884300
:103AB000023042F204312064C4F20101086820F4AB
:103AC000403008600A6894E809101A43D4F810E0FE
:103AD0000A604168012321F4807141604168C0F6A9
:103AE000007341EA0E214160416821F0407141605C
:103AF000416841EA0C014160816821F40061816004
:103B0000E168826811438160A16A8268994222F06B
:103B100070628260826813D122F0405119E000BFC8
:103B2000204600F065F80020606484F83C00206CBA
:103B3000C006B9D50120002184F83C1010BD00BF9B
:103B400011438160816821F040518160E16A82689F
:103B500011438160816821F0020181608168227EC9
:103B600094F8203041EA42018160416883B141F418
:103B70000061416041684EF2000221F46041416001
:103B8000616ACFF6FF72436802EB4131194301E0ED
:103B900021F400614160C16A40F2000C21F470011F
:103BA000C162E2696169CFF6F07CC36A0CEB025234
:103BB0001A43C262826822F40072826094F8302054
:103BC000836843EA42228260826822F480628260D3
:103BD000826842EA8121816000206064216C0122B8
:103BE00062F301012164002184F83C1010BD000043
:103BF00070B586B0044642F200002168C4F20100AC
:103C0000002681420596049602D006B070BD00BF22
:103C100043F630010096C4F202014A6900F568409B
:103C200042F480724A614A6902F480720092009AFA
:103C300000960A6842F004020A60096801F0040173
:103C400000910099202101910321CDE9021601A9DB
:103C500001F0C4F942F2344546F21040C2F20005C8
:103C6000C4F202004FF48061C5E9000605F11000BE
:103C70004FF480524FF480434FF4807C80E80E1064
:103C80002846C5E90266C5E9086600F0AFFE0028CF
:103C900018BFFFF7BDFBA563AC6306B070BD0000A5
:103CA000B0B582B004460020019094F83C00012891
:103CB00002D1022002B0B0BD94460A46012021681C
:103CC00084F83C008868C00729D188684DF6836570
:103CD00040F00100886040F25800C2F20000006825
:103CE000C4F21B35A0FB0505A80C00EB40000190B9
:103CF0000198A0B1019801380190019878B101981C
:103D000001380190019850B1019801380190019853
:103D100028B101980138019001980028EAD18868FB
:103D2000C00503D5886820F4807088608D68206C99
:103D3000ED0709D140F010002064606C40F00100F4
:103D40006064002002B0B0BD40F20175A84300F5E8
:103D5000807020644868400504D5206C012565F317
:103D60000D302064256C0020ED044FF0000544BFA9
:103D7000656C25F00605656484F83C00A06B41F68F
:103D8000F90541F67D13C0F60005C0F60003C0E951
:103D90000F5341F66913C0F60003C3646FF02203AA
:103DA0000B604B6842F2080543F080634B608B6800
:103DB000C4F2010543F480738B604C31634600F01C
:103DC000C7FED5F8FC122068C9060FD0A5F108017E
:103DD0008842B6D1286810F0405FB2D1286840F020
:103DE00080402860002002B0B0BD00BF42F2000158
:103DF000C4F20101884217D042F20021C4F201014D
:103E000088420DD042F20011C4F20101884298D1DB
:103E1000D5F8FC12C90607D005F5FC71884290D18F
:103E2000D5F8FC12C9068CD4816811F0405F7FF48C
:103E300088AF816841F080418160002002B0B0BD50
:103E400090F82020013A012A08D8006800F11402F5
:103E50000020136819431160704700BF00F124026D
:103E600001204FF48021136819431160704700004E
:103E700010B590F820E0D0F800C0AEF1010EBEF110
:103E8000010FDCF808E011D81EF0E05F18D0CEF387
:103E9000016EBEF1030F1DD100F1240101204FF48A
:103EA00000020B681A430A6010BD00BF00F1240134
:103EB00001204FF480220B681A430A6010BD00BF36
:103EC00000F1240101204FF400120B681A430A602C
:103ED00010BD00BF012000FA0EF01860886828B1FC
:103EE0004B68CC6844EAC303034303E00868CB682B
:103EF00043EA40530CEB0E10C0F880310B69C0F858
:103F00008431097D012905D100F5C2710B6843F4A4
:103F100080730B605168C0F88C11126800F5C07195
:103F2000C0F88821002001220B681A430A6010BDE6
:103F300090F82020013A012A30D8B0B546F200604E
:103F4000C4F20000026842F001020260026822F43A
:103F50007C520260D1F814E0CC694A6A0368012CF3
:103F600043EA022202600EF01F024FF0010303FA3F
:103F700002F2C3696FEA020C23EA0203C36113D0A1
:103F80002CBBC36803EA0C03C360CB688C8844EA8B
:103F9000034300EBCE0423640B4611E0416A41F475
:103FA0008021416201207047C3681343C3600B68DE
:103FB0008C8844EA034300EBCE04236401F10C0334
:103FC0008C681B8843EA044300EBCE0463644368B7
:103FD0008D6943EA0204D1F810E0096A002D08BF98
:103FE00003EA0C0444604369BEF1000F43EA020493
:103FF00008BF03EA0C040129446102D1C1691143DD
:10400000C161016821F0010101600020B0BD000024
:104010007047000010B590F82040013C012C73D887
:10402000D0F800C000290CBFDCF80C40DCF81040D0
:10403000A40773D00CEB011CDCF8B0410CF5D87E62
:1040400014F004049460DCF8B04119BFE408546033
:10405000640D1460DEF80040002904F00204D4600E
:10406000DCF8B44104F00F041461DCF8B441C4F38B
:1040700007249461DCF8B4414FEA14445461DCF83D
:10408000B8211A70026802EB0112D2F8B8214FEA87
:1040900012225A70026802EB0112D2F8B8214FEADC
:1040A00012429A70026802EB0112D2F8B8214FEA6C
:1040B0001262DA70026802EB0112D2F8BC211A71A6
:1040C000026802EB0112D2F8BC214FEA12225A71A7
:1040D000026802EB0112D2F8BC214FEA12429A7137
:1040E000026802EB0112D2F8BC214FEA1262DA71C7
:1040F00000680CBF00F10C0100F11001002020222B
:104100000B681A430A6010BD00F1240101204FF42E
:1041100080220B681A430A6010BD00BF00F1240121
:1041200001204FF400120B681A430A6010BD000012
:104130002DE9F04F81B0044600684669D0F804903C
:104140008768D0F80CB0D0F810A0D0F81880F1072C
:1041500004D1002530071DD424E000BFF90710D09A
:104160000121BA07816009D4780700F1AF803807D0
:1041700000F1B680204600F0EFFA02E0204600F0A1
:10418000EDFA0025F80500F18780F80300F1B18011
:10419000300707D51BF0100004D0206845F40075E7
:1041A0001021C160700708D51BF0080005D02068F9
:1041B0000821C160204600F005FAB00706D5206846
:1041C000C068800702D0204600F0FEF9700607D5CF
:1041D0001AF0100004D0206845F4806510210161B8
:1041E000B00608D51AF0080005D020680821016142
:1041F000204600F07DFAF00606D5206800698007A9
:1042000002D0204600F076FAB00308D519F010006D
:1042100005D0206810214160204600F06DFAF003BF
:1042200008D519F0080005D0206808214160204613
:1042300000F09EFA300440F19B805FEA497040F143
:10424000948006F4807008EA102028435FEA8871A1
:10425000014648BF41F00201B20558BF01465FEA7E
:1042600048700D4648BF45F00405700558BF0D461F
:10427000300540F17A8018F0700000F07680103838
:10428000000905286CD8DFE800F003595D61656915
:1042900045F0080564E000BF20684FF48071BA055E
:1042A00081600BD4780515D438051DD4204600F064
:1042B00057FAF8037FF56CAF1BE000BF204600F013
:1042C00051FAF8037FF564AF13E000BF4FF40065C7
:1042D00058E700BF05F50055F8037FF559AF08E032
:1042E0004FF480554EE700BF05F58045F8037FF594
:1042F0004FAF20684FF48031BA0381600AD478034D
:1043000010D4380314D4204600F02EFA30073FF5BD
:1043100041AF47E7204600F029FA30073FF53AAFB2
:1043200040E700BF05F5004530073FF533AF39E7FB
:1043300005F5803530073FF52DAF33E745F0100523
:104340000EE000BF45F020050AE000BF45F0400543
:1043500006E000BF45F0800502E000BF45F480752F
:104360002068816921F07001816120680421416029
:1043700055B1606A40EA05012046616201B0BDE8BE
:10438000F04FFFF745BE00BF01B0BDE8F08F000061
:10439000002804BF01207047B0B5044690F8200003
:1043A00010B9204600F06EF82068016841F0010164
:1043B000016000F0E7FE054620684168C90705D1A5
:1043C00000F0E0FE401B0B28F6D310E0016821F05E
:1043D0000201016000F0D6FE054600BF206841687A
:1043E00089070DD500F0CEFE401B0B28F6D3606A7E
:1043F000052140F400306062012084F82010B0BD37
:10440000217E0268012922F0800208BF803202600A
:10441000617E0268012922F0400208BF403202603A
:10442000A17E0268012922F0200208BF203202602A
:10443000E17E0268012922F0100218BF10320260EA
:10444000217F0268012922F0080208BF08320260B9
:10445000617F0268012922F0040208BF0432026071
:10446000D4E901C2D4E9033561691A432A431143EF
:10447000ACF101021143C16100200121606284F8A6
:104480002010B0BD10B586B0006846F60002C4F238
:10449000000200219042CDE90411CDE90211019101
:1044A00034D046F20041C4F20001884278D140F293
:1044B0009861C2F200010A6843F64000C4F20200AB
:1044C000531C0B6052B900210091016841F000714A
:1044D0000160016801F000710091009900210091D4
:1044E00050F8101C142441F0080140F8101C50F83A
:1044F000100C032100F008000090009840F20040EA
:10450000C4F2020000F5006036E000BF43F6400050
:10451000C4F202000091016841F08061016001680D
:1045200001F080610091009940F29861C2F20001AF
:104530000A68531C0B6052B900210091016841F0D8
:1045400000710160016801F0007100910099002183
:10455000009150F8101C402441F0020140F8101C5A
:1045600050F8100C4FF4405100F0020000900098F9
:1045700040F20040C4F202000191022102910021A8
:104580000391032104910921059101A900F026FD61
:1045900020460021002200F081FE204600F06CFE43
:1045A00006B010BD014690F820000138022803D261
:1045B000002200204A627047486A40F480220120AD
:1045C0004A62704770470000B0B58EB007AC05ABCB
:1045D000002122460546FFF71DFD08B10EB0B0BD13
:1045E000286846F20041C4F20001401A18BF0120B9
:1045F0009DF824208DF80400DDE90A038DF80520DC
:104600008DF80600D9B28DF80730042A08BF0434AB
:10461000D4F800C0CDF810C071B39DF81420012962
:104620008DF808202BD09DF8152002298DF809203F
:1046300028D99DF8162003298DF80A2025D09DF849
:10464000172004298DF80B2022D99DF81820052960
:104650008DF80C201FD09DF8192006298DF80D200B
:104660001CD99DF81A2007298DF80E2014BF9DF83B
:104670001B10002115E000BF00218DF8081000215B
:104680008DF8091000218DF80A1000218DF80B100B
:1046900000218DF80C1000218DF80D1000218DF8EF
:1046A0000E1040F24C42C2F2000255784CF6CD4456
:1046B0006B1CC0F6CC44A3FB0440147800EB8000D4
:1046C000A3EB8003A3428DF80F1005D101A804F0DD
:1046D0008FFD0EB0B0BD00BF01AC13CC02EB0515D1
:1046E00005F1040E8EE8131053700EB0B0BD00003B
:1046F000704700007047000070470000B0B50446E6
:1047000090F8200001281DD1022084F820002068A4
:10471000016821F00101016000F034FD054600BF91
:1047200020684068C00713D000F02CFD401B0B2808
:10473000F6D3606A40F400306062052084F82000FF
:104740000120B0BD606A40F4002060620120B0BD6D
:1047500000206062B0BD000070470000704700009C
:10476000704700007047000070470000704700006D
:104770007047000070B5866D044600F003FD94F8A4
:104780003510022928D105462068216C026822F0E4
:1047900016020260426922F08002426109B9A16CEE
:1047A00019B1016821F008010160016821F00101DF
:1047B000016000BF20680068C00715D000F0E2FC6F
:1047C000401B0628F6D320206065032084F83500BE
:1047D000002184F8341070BD802060650120002124
:1047E00084F8341070BD00BFE06D3F2101FA00F085
:1047F000B060012084F835000020002184F83410D6
:1048000070BD000090F83510022909D1052180F80B
:1048100035100068016821F0010101600020704737
:104820008021416501207047406D7047F0B581B02F
:1048300004460020009040F25800C2F200000268D6
:10484000D4E9166048F2B51337680821C1F64E3333
:1048500081403942A2FB03250CD0226813685B0714
:1048600008D5136823F004031360B160616D41F053
:104870000101616501218140394208D022685269F5
:10488000120604D5B160616D41F002016165042139
:104890008140394208D022681268920704D5B1607D
:1048A000616D41F00401616510218140394217D0EA
:1048B00020680268120713D5B160026801685203CC
:1048C00008D4C90508D4016821F008010160216CF1
:1048D00021B905E008033FD4216C09B1204688477F
:1048E000E16D202000FA01F23A4241D020680368CD
:1048F000DB063DD5B26094F835300268052B1BD13C
:1049000022F016020260426922F080024261226CAB
:104910000AB9A26C1AB1026822F0080202603F20B4
:104920008840B060012084F83500216D0020002906
:1049300084F8340052D157E00168520310D4C905FD
:1049400012D4016821F010010160012084F83500C3
:10495000002084F8340007E0A16C0029BED1BFE735
:10496000080301D4616C00E0E16B09B1204688477F
:10497000606DC8B3606DC0072ED0052084F8350087
:104980002068A90A026822F001020260009A01323E
:104990008A4200921AD80268D20717D0009A0132D0
:1049A0008A42009212D80268D2070FD0009A0132D0
:1049B0008A4200920AD80268D20707D0009A0132D0
:1049C0008A42009202D80268D207DFD1012084F81F
:1049D0003500002084F83400E16C29B1204601B094
:1049E000BDE8F040084700BF01B0F0BD2DE9F0413F
:1049F000044600F0C7FBECB10546022084F8350000
:104A00000020216884F83400086820F00100086064
:104A100021680868C00711D000F0B4FB401B0528CE
:104A2000F6D9032520230320636584F83550BDE8BB
:104A3000F08100BF0120BDE8F08100BF086848F2A6
:104A40003F02CFF21002D4E9013500EA020C04F172
:104A50000C0898E8C10143EA0C032B431843D4E93E
:104A6000072E304338431043626A40EA0E00042A9E
:104A700040EA08031CD1206BD4E90A2E40EA0E005C
:104A8000184308604869BEF1000F20F0030040EAB7
:104A9000020040F0040C11D0B8F5005F36D0B8F138
:104AA000000F45D1022A46D0012A3BD032B942E05C
:104AB0000B60486920F0070040EA020C01F0F800A2
:104AC0004AF6AB221038CAF6AA22A0FB02231A0922
:104AD00046F29863C1F814C0C0F601039A5C40F234
:104AE000FF335F284FF03F0021EA030100FA02F094
:104AF00088BF0431C4E91612886000230125002014
:104B0000636584F83550BDE8F08100BF032AD5D82D
:104B1000012540230120DFE802F0030E030500BF5A
:104B200082E700BFAEF1C070B0FA80F0400904E047
:104B3000032A04D3C2D1CEF300600028BED00125E1
:104B400040230120636584F83550BDE8F081000002
:104B500090F834C0BCF1010F04BF0220704770B55B
:104B60004FF0010C80F834C0D0F858E090F835C010
:104B7000BCF1010F38D14FF0020C80F835C04FF076
:104B8000000CC0F854C0D0F800C08468056CC06D3B
:104B9000DCF80060402C26F48026CCF80060CCF8CD
:104BA00004300B4604BF13460A463F2101FA00F0C9
:104BB000CCF80830CCF80C20CEF80800DCF8000067
:104BC00040F01600CCF800002DB1DCF8000040F0F9
:104BD0000800CCF80000DCF8000040F00100CCF840
:104BE0000000002070BD00BF002180F834100220BA
:104BF00070BD000010B582B001900198013007D05F
:104C000040F20000C2F200000078019908440190CF
:104C10000AF082FC0146019821B102B0BDE81040C3
:104C20000AF04EBC002849D040F21010C2F2000039
:104C3000007900284EF21800CEF2000026D049F28A
:104C4000400E4FF0000CC0F2020E04E001990CF18E
:104C5000010C8C4532D250F8043C0268002107E078
:104C60001144091B944228BF194471452246EDD2D4
:104C700004689442F4D104689442F1D104689442E7
:104C8000EED104689442F3D0EAE700BF002103E0CC
:104C9000019A0131914211D250F8042C026800BFF0
:104CA00003689342F4D103689342F1D103689342BD
:104CB000EED103689342F3D0EAE700BF02B010BD23
:104CC0002DE9F04381B043F20048C2F2000898F8A1
:104CD0001820012A04D1022001B0BDE8F08300BFF2
:104CE0000546012088F818004CF250308946FEF73E
:104CF00095FB28B1002188F8181001B0BDE8F083B9
:104D00004FF0FF30C9F80000286843F6104701282B
:104D1000C4F202071CD128693968000221F44071ED
:104D20003960396880B241F004013960396808435C
:104D300040F4803038604CF25030FEF76FFB396839
:104D400021F00401396057F8101C89053BD452E06A
:104D5000D5E902603044864230D2F000841C00BFA6
:104D600028694FF44072C1B2032939684FEA002024
:104D700021F440713960396838BF82B241EA0200DB
:104D80003860386820F0F8003860386820433860B0
:104D9000386840F4803038604CF25030FEF73EFB0B
:104DA0003968002821F0FA01396047D1D5E90201BC
:104DB00001360844864204F10804D1D3002057F894
:104DC000101C890517D557F8101C21F4007147F8FD
:104DD000101C57F8101C41F4006147F8101C57F8DC
:104DE000101C21F4006147F8101C57F8101C41F406
:104DF000007147F8101C57F8101C49057FF57AAF71
:104E000057F8101C21F4806147F8101C57F8101C4B
:104E100041F4805147F8101C57F8101C21F48051C0
:104E200047F8101C57F8101C41F4806147F8101C1B
:104E3000002188F8181001B0BDE8F083C9F80060BF
:104E400057F8101C8905BED4D5E7000043F6104181
:104E5000C4F20201086840F0004200200A60704776
:104E60002DE9F04381B043F20044C2F200049046C1
:104E7000227E012A04D1022001B0BDE8F08300BFE8
:104E80000746012020764CF250301E460D46FEF7B4
:104E9000C5FA28B10021217601B0BDE8F08300BF3A
:104EA00043F61049022FC4F2020917D0012F2BD06C
:104EB000002F3FD1D9F8000020F44070C9F800005D
:104EC000D9F80000C9F80000D9F8000040F001004E
:104ED000C9F8000085F8008043E000BFD9F8000061
:104EE00020F44070C9F80000D9F8000040F40070C8
:104EF000C9F80000D9F8000040F00100C9F800002E
:104F0000C5F800802DE000BFD9F8000020F4407003
:104F1000C9F80000D9F8000040F48070C9F800001A
:104F2000D9F8000040F00100C9F80000A5F80080A1
:104F300017E000BFD9F8000020F44070C9F8000065
:104F4000D9F8000040F44070C9F80000D9F800001A
:104F500040F00100C9F80000C5F80080BFF36F8F72
:104F60006E604CF25030FEF759FAD9F8001021F07B
:104F70000101C9F800100021217601B0BDE8F083DD
:104F800043F60440C4F20200C168B1F1FF3FC4BF60
:104F90000020704740F22311C4F26751016048F6C7
:104FA000AB11CCF6EF510160C068C00F7047000034
:104FB00040F25461C2F200010968002908BF70473D
:104FC0000847000043F61441C4F201010A68024296
:104FD00014BF08607047FFF7EBBF00002DE9F04FEA
:104FE00082B000F13E4707F1FF77860546EA972732
:104FF00041F60046C4F20206082243F6004EB042D3
:1050000008BF0722C4F2010E072F38BF3A46002618
:1050100000274FF00008009209E000BF08F10108E6
:105020000237B8F1100F06F1040600F0A1800D68F8
:10503000012202FA08F415EA0409EFD0D1F804B00D
:1050400003220BF0030CACF10105BA40012D6FEA0D
:10505000020A0FD88268CD6802EA0A02BD402A43DC
:1050600082604268A243CBF3001404FA08F422439E
:10507000426005E0BCF1030F02D14FF0030C1EE0CB
:10508000C2688C6802EA0A02BC402243BCF1020FEB
:10509000C26014D16FF0030202EA58020244D2F84F
:1050A00020C006F01C040F230D69A3402CEA030363
:1050B000A5402B431362D1F804B00BF0030C026837
:1050C0000CFA07F302EA0A021A431BF4403F02609B
:1050D000A4D0002243F644030192C4F202031A68EA
:1050E0004FF6084C42F480421A601A68CFF6FF7CF3
:1050F00002F480420192019A28F00302724452F8AD
:105100000C3006F00C050F24AC40A343009C04FABD
:1051100005F52B4342F80C30DEF800204B6842EADC
:105120000905DC0358BF22EA0905CEF80050DEF875
:1051300004209C0342EA090558BF22EA0905CEF87B
:105140000450DEF80820DC0242EA090543F60C446C
:1051500058BF22EA0905CEF80850C4F201042268BB
:105160009B0242EA090558BF22EA0905256055E776
:1051700002B0BDE8F08F0000002A08BF0904816179
:10518000704700004EF21000CEF200000068C0032D
:1051900043F69470C2F2000007D540F21011C2F23B
:1051A000000109780268114401600068704700003E
:1051B00040F2101043F69471C2F20000C2F20001F6
:1051C00000780A68104408607047000080B543F614
:1051D0000040C4F20200016841F4007101600168FE
:1051E00041F480610160016841F480710160032035
:1051F00000F080F8002000F005F800F021F8002011
:1052000080BD000080B540F25800C2F20000006886
:1052100044F6D351C1F26201A0FB0101880900F0FC
:105220001FFD40F210114EF62350C2F20001012280
:10523000CEF20000F0230A71037000200A7080BDD6
:1052400082B0002043F640010190C4F202014A6896
:1052500042F480424A604A6802F480420192019A14
:105260000090086840F080500860086800F08050A6
:105270000090009802B07047002848BF704700F0C7
:105280001F01012202FA01F11C2202EAD0004EF2B3
:105290000012CEF2000281507047000010B54EF6A9
:1052A0000C5CCEF2000CDCF80030C3F3022E8EF062
:1052B0000704042C28BF0424BEF103034FF0FF3E73
:1052C0000EFA04F438BF0023A14399400EFA03F309
:1052D0009A43114300F00F0200F160430901043AC0
:1052E00003F564436244002848BF02F10C031970BF
:1052F00010BD00004EF60C51CEF200010A684FF6C8
:10530000FF031A4060F30A2242F0806040F0FD7013
:1053100008607047002804BF012070472DE9F04164
:1053200043F60808C4F202080446D8F8F8030D460C
:1053300000F00700884207D288F8F853D8F8F8033D
:1053400000F00700A84277D12068810717D54107F0
:1053500005D5D8F8001041F4E051C8F80010010755
:1053600005D5D8F8001041F46041C8F80010D8F80D
:105370000010A26821F0F0011143C8F80010C00726
:1053800040D1D8F8F80300F00700A84207D988F800
:10539000F853D8F8F80300F00700A8424CD1206871
:1053A000410707D5D8F80010E26821F4E051114315
:1053B000C8F80010000708D5D8F80000216920F4CB
:1053C000604040EAC100C8F8000000F083F8D8F857
:1053D000001041F24C22C1F30311C0F60102515CEE
:1053E00040F2580220FA01F140F20400C2F200003B
:1053F0000068C2F200021160FFF704FF0020BDE860
:10540000F08100BF6068811E022907D258F8081C8D
:1054100089015CBF0120BDE8F08111E0012807D1BE
:1054200058F8081C89035CBF0120BDE8F08107E043
:1054300058F8081C890703D40120BDE8F08100BF9B
:10544000D8F8001021F003010843C8F80000FFF766
:1054500099FE064641F28837D8F80000616800F0EE
:105460000C00B0EB810F8CD0FFF78CFE801BB84294
:10547000F2D90320BDE8F08140F25800C2F20000EA
:105480000068704740F2580043F60801C2F200007D
:10549000C4F202010068096841F25C22C1F3822172
:1054A000C0F60102515CC8407047000040F258004D
:1054B00043F60801C2F20000C4F202010068096864
:1054C00041F25C22C1F34231C0F60102515CC84096
:1054D0007047000010B543F60404C4F2020460688B
:1054E00000F00C0142F200400829C0F2F40007D09D
:1054F000042918BF10BD41F20020C0F27A0010BD8F
:10550000216801F03F02216823684902C3F3881132
:1055100006D4A1FB00010023FAF7C2FF07E000BF99
:1055200041F20020C0F27A004843B0FBF2F021685B
:105530000222C1F3014102EB4101B0FBF1F010BDC9
:10554000002804BF012070472DE9F04182B00446D5
:10555000007843F60006C007C4F202060CD0B0681B
:1055600000F00C00042840F081803068800303D5EF
:105570006068002800F06A81207880071BD5B06839
:1055800010F00C0F09D0B06800F00C00082840F0B3
:1055900087807068400200F183803068800703D5FF
:1055A000E068012840F052813068216920F0F8005D
:1055B00040EAC10030602078000713D4207840070B
:1055C0002AD4A569002D00F03C81B06800F00C00E1
:1055D000082840F0A180012D40F01081012002B088
:1055E000BDE8F0816069002840F20000C4F2472065
:1055F00000F07E800121C0F8801EFFF7C3FD054644
:10560000706F8007DAD4FFF7BDFD401B0228F7D981
:10561000032002B0BDE8F081306C5FEAC0080AD414
:1056200000200190306C40F080503064306C00F00D
:1056300080500190019847F20007C4F200073868D3
:10564000C00547D4386840F480703860FFF79AFD91
:10565000054600BF3868C0053CD4FFF793FD401BEA
:105660000228F7D9032002B0BDE8F081B06800F04D
:105670000C00082803D1706840023FF576AF6068DF
:10568000B0F5803F07D0B0F5A02F40F09B80306888
:1056900040F480203060306840F4803030609BE01F
:1056A000E06800285CD00020C4F24720012101609E
:1056B000FFF768FD054600BF306880073FF574AF0F
:1056C000FFF760FD401B0228F6D9032002B0BDE8B9
:1056D000F08100BFA068012805D0052854D1306FA3
:1056E00040F004003067306F40F00100306755E053
:1056F0000021C0F8801EFFF745FD0546706F80074A
:105700007FF55CAFFFF73EFD401B0228F6D9032072
:1057100002B0BDE8F08100BF0027C4F24727002097
:105720003866FFF72FFD022D05460DD13068800148
:1057300040F19080FFF726FD401B02284FF0030048
:10574000F4D902B0BDE8F0813068800179D5FFF767
:1057500019FD401B02284FF00300F5D9F1E700BF07
:105760000020C4F2472000210160FFF70BFD054631
:10577000306880077FF51FAFFFF704FD401B02284C
:105780004FF00300F4D9DCE7316F002821F001016C
:105790003167316F21F0040131677DD0FFF7F2FCF2
:1057A000054641F2883700BF306F800700F18680E0
:1057B000FFF7E8FC401BB842F6D9032002B0BDE871
:1057C000F08100BF3168002821F4803131603168F8
:1057D00021F4802131607BD0FFF7D4FC054600BF67
:1057E000306880033FF5C8AEFFF7CCFC401B64284F
:1057F000F6D9032002B0BDE8F08100BF7068E1690E
:1058000000F480028A4221D1216A00F03F028A42DC
:105810001CD147F6C071626A0140B1EB821F15D1FD
:10582000A16A4FF6FF73C903994300F44032A1F512
:1058300080318A420AD1E16A00F07060B0EB016FFA
:1058400004D1002002B0BDE8F08100BF012002B009
:10585000BDE8F08104F11C052FCD084340EA821019
:10586000D9034FF6FF729143A1F5803140EA0560FC
:105870000843706001203866FFF784FC044600BFCF
:1058800030688001DDD4FFF77DFC001B02284FF05B
:105890000300F5D955E700BFFFF774FC054641F258
:1058A000883700BF306F800708D5FFF76BFC401BBF
:1058B000B8424FF00300F5D943E700BFB8F1000F3D
:1058C0003FF57FAE306C20F08050306479E600BF49
:1058D000FFF758FC054600BF306880037FF54CAEEB
:1058E000FFF750FC401B64284FF00300F4D928E771
:1058F00070B538B10446406A30B10020206104F12F
:10590000140007E0012070BD6068B0F5827F03D00D
:1059100004F11C00002101600026A66294F85100E9
:1059200020B9204684F8506000F03CF8022084F84A
:10593000510094E80F0001F48271056802F40442FA
:1059400025F040050560114403F400622369114409
:1059500003F002026369114403F00102A369E569DF
:10596000114403F40072114405F03802256A114411
:1059700005F08002A56A114305F40052114301604D
:10598000626A042101EA134102F0100211444160ED
:10599000C16921F40061C1610120666584F851008C
:1059A000304670BD016843F20000C4F2010081423C
:1059B00018BF704780B586B0002143F630020191D0
:1059C000C4F20202536900F5504043F4805353611E
:1059D000536903F480530193019B0191136843F0D1
:1059E00001031360126802F001020192019AA022E1
:1059F00001920222CDE902210321049105210591A2
:105A000001A9FFF7EBFA06B0BDE88040704700003F
:105A10002DE9F04383B0044690F85000012803D1EB
:105A2000022003B0BDE8F0834FF001091D46164681
:105A30000F4684F85090FFF7A5FB94F85110012908
:105A400044D18046002F4FF0010018BF002E00F017
:105A5000D4800320002184F8510061652763A68665
:105A6000E686A163A187E187A0682164B0F5004FB5
:105A70002068616407D1016821F04001016001687C
:105A800041F4804101600168490603D4016841F096
:105A9000400101606168731EE268B1FA81F1B3FAF6
:105AA00083F349095B09B2F5006F41EA03013BD179
:105AB00031B137F8021BC1602763E08E0138E08600
:105AC000E08E00286AD0681C0DD11CE0022094E012
:105AD000216B31F8022BC2602163E08E0138E08631
