:020000040800F2
:10000000E044002071020008A17E0008910300086E
:100010009D7E000819120008ADA100080000000034
:100020000000000000000000000000008302000843
:10003000311D000800000000DF020008C58C000828
:100040008B0200088B0200088B0200088B0200085C
:100050008B0200088B0200088B0200088B0200084C
:100060008B0200088B0200088B0200088B0200083C
:10007000411A0008511A0008611A0008711A000894
:10008000811A0008911A00088B0200088B020008F0
:100090001D1200088B0200088B0200088B0200086A
:1000A0008B0200088B0200088B0200088B020008FC
:1000B000718E00088B020008818E00088B020008F8
:1000C0008B0200088B0200088B0200088B020008DC
:1000D0008B020008BDA00008F9A0000835A10008A7
:1000E000D12900088B0200088B0200088B0200084F
:1000F0008B0200088B0200088B020008A11A00087E
:100100008B0200088B020008918E00088B02000809
:10011000419900087D9900088B0200088B020008B5
:10012000B11A0008C11A0008D11A00088B02000891
:100130008B0200088B0200088B0200088B0200086B
:100140002D1200088B0200088B0200088B020008A9
:10015000E11A0008F11A0008011B000871A100084B
:100160008B0200088B0200088B0200088B0200083B
:100170008B0200088B0200088B02000800000000C0
:100180008B0200088B02000800F002F800F060F813
:100190000AA090E8000C82448344AAF10107DA45E2
:1001A00001D100F055F8AFF2090EBAE80F0013F0D4
:1001B000010F18BFFB1A43F0010318471C4401004C
:1001C0003C4401000A444FF0000C10F8013B13F0CE
:1001D000070408BF10F8014B1D1108BF10F8015BA0
:1001E000641E05D010F8016B641E01F8016BF9D193
:1001F00013F0080F1EBF10F8014BAD1C0C1B09D1EA
:100200006D1E58BF01F801CBFAD505E014F8016B5B
:1002100001F8016B6D1EF9D59142D6D370470000ED
:100220000023002400250026103A28BF78C1FBD8FF
:10023000520728BF30C148BF0B6070471FB50EF092
:100240005AFB9DE8030000F06FFB1FBD10B510BD09
:1002500000F012FC1146FFF7F1FF00F08FFC00F0F8
:1002600030FC03B4FFF7F2FF03BC00F061FC0000B8
:100270000948804709480047FEE7FEE7FEE7FEE73A
:10028000FEE7FEE7FEE7FEE7FEE7FEE70448054976
:10029000054A064B704700005D8E00088901000882
:1002A000E03E0020E0440020E0400020E04000204C
:1002B000EFF3108072B6704780F310887047424A9F
:1002C0001368012B04D04FF0010313603F4A106004
:1002D0003F4A11603F484FF0805101607047EFF393
:1002E000108272B63848016851B34FF000010160C6
:1002F0003648016891B1EFF309811EF0100F08BF75
:1003000021ED108B21E9F00F4FF000041EF0100FCB
:1003100008BF012441F8044D006801602C490968B8
:10032000096808C9B1E8F00F002B18BFB1EC108BB9
:1003300081F309884EF0100E002B18BF2EF0100E1E
:1003400082F310884EF0040E704721490860EFF3E5
:10035000148222F0040282F314881C494FF000003A
:10036000086019494FF0010008601B481B49D0F88C
:10037000002041EA0201016016484FF080510160FF
:1003800017480068006880F3088861B662B6704755
:100390001EF0040F0CBFEFF30880EFF3098020E993
:1003A000F00F40F804ED40F804ED1EF0040F0CBF10
:1003B00080F3088880F3098800B50CF081FB5DF8B4
:1003C00004EB4EF0040E7047DC010020D401002045
:1003D000D801002004ED00E020ED00E00000FFFF68
:1003E00008ED00E070B5064600F082FA056806F1F7
:1003F0000B0020F00704B4429CBF002070BD2B46C8
:100400006A68BAB11068A04210D304F108018842AA
:100410003CBF5068586007D351681019416011689B
:10042000091B016058601460101D70BD13465268AE
:10043000002AE7D12146284600F062FA0028DED1E2
:1004400070BD70B50446051F00F052FA0068002C1C
:1004500014BF446870BD002C18BFAC423CBF20469E
:100460006468F8D301680A18AA4218BF456003D12E
:100470002A6805461144016028684119A1421CBF41
:100480006C6070BD6168696021680844286070BD57
:1004900053EA020C00F069802DE9F04B4FF00006A2
:1004A000002B1FBFB3FA83F503FA05F424FA05F60F
:1004B0005E4012BF1643B2FA82F502FA05F4C5F1A6
:1004C00020051EBF22FA05FC44EA0C04203556EA3A
:1004D000044C4FEA144418BF641C4FF000084FF05E
:1004E0000009904271EB030C39D3002919BFB1FA0E
:1004F00081F701FA07F6B0FA80F700FA07F6C7F1BC
:1005000020071EBF20FA07FC46EA0C062037B6FB80
:10051000F4FCA7EB0507103F07F01F0BCBF12006FB
:100520000CFA0BFB2CFA06F644BFB3460026202F2C
:10053000A4BF5E464FF0000B5BEA060C08BF4FF00D
:10054000010B19EB0B09ABFB027C48EB0608C01B47
:1005500006FB02CC0BFB03CC71EB0C01C1E70B4695
:10056000024641464846BDE8F08B13B54FF0000007
:100570004FF00001AFF30080BDE81C40704730B57C
:1005800005460B462A4613F8014B12F8010B08B139
:10059000A042F8D01CB1002802D06D1CF1E728461B
:1005A00030BD10B5431C02E010F8011B71B181078A
:1005B000FAD14FF0013202C88C1A8C4314EAC211EE
:1005C000F9D0C01A0A0603D0C01E10BDC01A10BD53
:1005D0000A0401D0801E10BD0902FCD0401E10BDCF
:1005E00040EA010370B59B072ED14FF00136042A73
:1005F0002AD308C810C99D1B9D43121F15EAC615B2
:1006000017D0D8B2E1B2401A50EA056110D198B2C1
:10061000A1B2401A50EA05410AD123F07F4024F0EC
:100620007F41401A50EA052102D1180EA0EB146058
:1006300070BDA342DBD018BA21BA884201D901208B
:1006400070BD4FF0FF3070BD0AB9002070BD10F8CA
:10065000013B11F8014B63B1A3420AD1521E08D0ED
:1006600010F8013B11F8014B1BB1A34201D1521EFE
:10067000EDD1181B70BD421E12F8013F002BFBD1BB
:1006800011F8013B002B02F8013BF9D17047032A16
:1006900040F2308010F0030C00F0158011F8013B9F
:1006A000BCF1020F624498BF11F801CB00F8013B86
:1006B00038BF11F8013BA2F1040298BF00F801CB4A
:1006C00038BF00F8013B11F0030300F06780083ADF
:1006D000C0F0088051F8043B083A51F804CBA0E878
:1006E0000810F5E7121D5CBF51F8043B40F8043BCD
:1006F000AFF30080D20724BF11F8013B11F801CB02
:1007000048BF11F8012B24BF00F8013B00F801CBD2
:1007100048BF00F8012B7047431A28BF9A427FF662
:10072000B6AF032A1044114440F2268010F0030FA4
:100730001EBF11F8013D521E00F8013D10F0030FDD
:100740007FF4F6AF11F0030300F04281083AC0F0E5
:100750000B8051F8043D083A51F804CD40F8043DAF
:1007600040F804CDFFF7F3BF121D5CBF51F8043D04
:1007700040F8043DAFF30080D20724BF11F8013DDB
:1007800011F801CD48BF11F8012C24BF00F8013D3C
:1007900000F801CD48BF00F8012C704710B5203A91
:1007A000C0F00B80B1E81850203AA0E81850B1E82A
:1007B0001850A0E81850BFF4F5AF5FEA027C24BFE0
:1007C000B1E81850A0E8185044BF18C918C0BDE8D7
:1007D00010405FEA827C24BF51F8043B40F8043BA0
:1007E00008BF7047D20728BF31F8023B48BF11F855
:1007F000012B28BF20F8023B48BF00F8012B7047AF
:100800004FF000020429C0F0128010F0030C00F039
:100810001B80CCF1040CBCF1020F18BF00F8012BB7
:10082000A8BF20F8022BA1EB0C0100F00DB85FEA85
:10083000C17C24BF00F8012B00F8012B48BF00F851
:10084000012B70474FF0000200B5134694469646C0
:10085000203922BFA0E80C50A0E80C50B1F12001D3
:10086000BFF4F7AF090728BFA0E80C5048BF0CC081
:100870005DF804EB890028BF40F8042B08BF7047DF
:1008800048BF20F8022B11F0804F18BF00F8012B51
:10089000704710B5044610F0030F08BF11F0030FA6
:1008A00040F015804FF0013E121FC0F20E8051F84B
:1008B000043BA3EB0E0C2CEA030C1CEACE1C08BF75
:1008C00040F8043BF0D0A1F1040102F10402521EF1
:1008D00008DB11F8013B002B00F8013BF7D1114672
:1008E000FFF78EFF204610BD70477047704700002D
:1008F00000487047883E0020704770477047704737
:1009000038B504460A4600206946AFF30080002847
:1009100008BF38BD02460099204600F08BF8012040
:1009200038BD012000F0A0B8F8B5AFF3008005464F
:1009300000200C46102000BF0646A819A0420DD981
:10094000324669460020AFF30080070008BF00F080
:100950008BF80098A04218BF0546C419FFF7C8FFDE
:1009600005600746F01D20F007004619284600F0F4
:100970000AF8B44208BFF8BDA21B31463868BDE88A
:10098000F84000F057B800210160C0E9011070473D
:100990001020704710B500F049F8006810BD10B580
:1009A000044600F043F8046010BD431A28BF9A4281
:1009B0007FF6F4AE104410F0030F11441EBF11F87F
:1009C000013D521E00F8013D10F0030F7FF4F6AF19
:1009D000103AC0F00A8010B531E91850103A20E9F9
:1009E0001850BFF4F9AFBDE81040530724BF31E9F8
:1009F000081020E9081044BF51F8043D40F8043DB8
:100A000012F0030F08BF7047D20728BF31F8023D2C
:100A100048BF11F8012C28BF20F8023D48BF00F85C
:100A2000012C704700487047803E00200048704706
:100A3000803E0020034640688C46002818BF88424C
:100A40003CBF03464068F8D318681844884207D072
:100A50000CF1030020F00700001D411A521A014654
:100A6000081D0A60FFF7EDBC10B500F039F8BDE8CD
:100A7000104000F02FB870477546FFF7D3FFAE4621
:100A800005006946534620F00700854618B020B59A
:100A9000FFF7FCFBBDE820404FF000064FF00007D9
:100AA0004FF000084FF0000B21F00701AC46ACE816
:100AB000C009ACE8C009ACE8C009ACE8C0098D4683
:100AC000704710B50446AFF300802046BDE81040E3
:100AD000FFF7C7BB002801D000F02AB8704700001C
:100AE00010B5012805D0002103A000F027F801204F
:100AF00010BD09A1F8E7000053494752544D454D38
:100B00003A204F7574206F662068656170206D65AE
:100B10006D6F7279000000003A2048656170206DA9
:100B2000656D6F727920636F7272757074656400A1
:100B300001491820ABBEFEE72600020070B505464D
:100B40000C460A2000E06D1C00F011F835B1287841
:100B50000028F8D102E0641C00F009F814B12078F4
:100B60000028F8D1BDE870400A20AFF3008008B536
:100B700069468DF800000320ABBE08BD10B50DF02E
:100B8000E1F9002010BD70B50546AC6B206C00F09B
:100B9000500050BB206C40F40070206420688068D6
:100BA00000F04050E8B9207ED8B92068C06A00F44F
:100BB000700020B12068806800F4806088B92068E7
:100BC000406820F0200021684860206C20F480708C
:100BD0002064206C00F4805018B9206C40F00100B3
:100BE0002064204602F01AFA0BE0206C00F010009E
:100BF00018B1204602F04FFA03E0A06BC16C284602
:100C0000884770BD70B50546AC6B40202064606CB1
:100C100040F004006064204602F03DFA70BD70B5FB
:100C20000446A56B284602F035FA70BD55494A685E
:100C300022F440324A604A6843681A434A600268B4
:100C4000526822F4807203685A600268536802692D
:100C500043EA022203685A600268526822F0407236
:100C600003685A600268526883681A4303685A60CE
:100C70000268926822F4006203689A6002689268CF
:100C8000C3681A4303689A603F4B826A9A4218D03D
:100C90000268926822F0706203689A600268926843
:100CA000836A1A4303689A600268926822F040528D
:100CB00003689A6002689268C36A1A4303689A607C
:100CC0000BE00268926822F0706203689A60026822
:100CD000926822F0405203689A600268926822F09B
:100CE000020203689A6002689368027E43EA420245
:100CF00003689A602022125CA2B10268526842F432
:100D0000006203685A600268526822F46042036815
:100D10005A6002685368426A521E43EA42320368CC
:100D20005A6005E00268526822F4006203685A6063
:100D30000268D26A22F470020368DA620268D36A37
:100D4000828B521E43EA02520368DA62026892689A
:100D500022F4007203689A600268936890F8302069
:100D600043EA422203689A600268926822F4806231
:100D700003689A6002689368426943EA82220368C2
:100D80009A607047002301400100000F70B50024F5
:100D900008E0344951F82400B0F1FF3F00D009E0E9
:100DA000601C84B230490889C11700EB9171B4EB23
:100DB000A10FEEDB00BF2C490889C11700EB917130
:100DC000B4EBA10F18DB294827490A6802604A687A
:100DD0004260896881600089801E81B2234800F0EA
:100DE000CFFD2249488108460589E81705EB907038
:100DF00082101C480DF050F91C481A490A6802601C
:100E00004A684260896881600089801E81B2174803
:100E100000F0B6FD0446154800785A2807D113485B
:100E20004078A52803D111484089A04218D00F4826
:100E30000D490A6802604A684260896881600089D9
:100E4000801E81B2094800F09BFD08494881084690
:100E50000589E81705EB9070821002480DF01CF927
:100E6000002070BD00000208EA3F01087830002031
:100E700070B500251648007801281FD100201449BC
:100E800008701448008914490881FFF711FA0646D2
:100E900011480089801E81B20F4800F071FD0E4993
:100EA000488108460489E01704EB907082100B48D3
:100EB0000DF0F2F83046FFF7FFF906E0044800783D
:100EC000032802DD002002490870284670BD00009A
:100ED0005C000020EA3F0108783000200000020892
:100EE00010B506F063FC06F0D5FB06F02BFF06F00C
:100EF00045FF06F063FF06F099FF06F07FFB06F062
:100F0000A3FB06F079FD06F041FB06F06DFE06F04E
:100F1000C1FE06F0A7FF06F06DFF06F08FFD06F09C
:100F2000F7FD06F02BFE00F04FF807F01DFD002046
:100F300010BD000010B500221146144807F059FA00
:100F40001349088001220021104807F052FA104985
:100F50004880022200210D4807F04BFA0C49888096
:100F600003220021094807F044FA0949C8800022F9
:100F70000121064807F03DFA054908810122114682
:100F8000024807F036FA0249488110BD443100207A
:100F90000C010020094890ED000AB8EE400AF2EE7C
:100FA000060A20EE200ADFED060A80EE201A054828
:100FB00080ED001A90ED000A70470000300000201C
:100FC00000007A443400002010B5002405E0002021
:100FD000064941F82400601CC4B2502CF7DB5022B3
:100FE0000249034802F0EEF810BD0000381300205B
:100FF000F801002010B506F001FB06F025FB10BD3E
:1010000010B505F0BBFE10BD0248406A0249496AAE
:1010100008447047A0020020C802002070B50546B1
:101020000C46084885420CD124B101221102064821
:1010300003F024FB2CB900224FF48071024803F026
:101040001DFB70BD6C100020000802402DE9F0412E
:1010500004460F469046D4F8B80090F83D0020288A
:1010600002D00220BDE8F081A4F8AA80B4F8AA005A
:10107000462801DD3D4606E0B4F8AA203946204660
:10108000FFF705FB2546D4F8B80005F009F8012163
:101090002046FFF7C3FFB4F8AA202946D4F8B800C9
:1010A00005F0FAFD064646B9B4F8AA10D4F8B00027
:1010B0000844C4F8B0003046D4E700212046FFF7CA
:1010C000ADFF3046CEE710B50446D4F8C40098B161
:1010D000322204F14601D4F8B80005F01BFD08B136
:1010E00001F0E4FCD4F8B8000068C06840F01000DB
:1010F000D4F8B8100968C86000212046FFF78EFFB9
:1011000010BD000070B504460E461546CC212046A1
:10111000FFF798FB2948844209D129482749C1F89B
:10112000B8002848C1F8BC002748C1F8C0002748CB
:10113000844209D126482549C1F8B8002548C1F89C
:10114000BC002548C1F8C0002448844209D1244885
:101150002249C1F8B8002348C1F8BC002248C1F8B0
:10116000C0002248844209D121482049C1F8B80072
:101170002048C1F8BC002048C1F8C0001F48844284
:1011800006D11F481D49C1F8B8001E48C1F8BC006F
:101190001D48844209D11D481B49C1F8B8001C48AC
:1011A000C1F8BC001B48C1F8C000C4F8C460C4F852
:1011B000C8502046FFF787FF70BD0000700C00206C
:1011C0009805002028080020C80700203C0D0020BA
:1011D000DC050020E808002088080020080E002018
:1011E00020060020A809002048090020D40E002075
:1011F0001005002008070020A8060020A00F0020EE
:1012000054050020680700206C10002064060020B0
:10121000680A0020080A002000BFFEE710B5024857
:1012200002F0BAFA10BD0000A002002010B502487A
:1012300002F0B2FA10BD0000C80200202DE9F04112
:1012400005460024C2E0C4EBC400634901EB800002
:101250000069E96888427CD10027C4EBC4005E497C
:1012600001EB8000806970B1E878C4EBC4015A4A90
:1012700002EB81018978B0EB111F01D1012000E060
:10128000002007460BE0C4EBC400534901EB80008B
:101290008078000918B1A878022800D10127012F11
:1012A00057D1C4EBC4004C4901EB8000806978B190
:1012B00000260AE0281D805DC4EBC401464A02EB0B
:1012C000810189698855701CC6B2E878B042F1DCAA
:1012D000E86801F0D3FDC4EBC4003F4901EB800096
:1012E000406940B9C4EBC40001EB8000807800F095
:1012F0000F00002868D0C4EBC400374901EB800020
:101300004088C0F3413020B1012812D002285AD1C0
:101310002BE0C4EBC400304901EB8000C0882F49AA
:101320000988081AC4EBC4012B4A02EB8101088129
:1013300049E0C4EBC400284901EB80004088C0F3B9
:101340004120022810D1C4EBC40001EB800040888A
:1013500000E039E020F4C06000F5C060C4EBC401D7
:101360001D4A02EB810148802DE0C4EBC4001A49FC
:1013700001EB8000408820F4807000F58070C4EBA1
:10138000C401154A02EB81014880C4EBC400114638
:1013900001EB8000408820F4C06000F50070C4EBD1
:1013A000C40102EB81014880C4EBC400114601EB8B
:1013B0008000C08809490988081AC4EBC40102EBFF
:1013C0008101088100BF00BF601CC4B2242CFFF65D
:1013D0003AAFBDE8F0810000882C00204A000020D0
:1013E00010B54FF4FA600349088005F003FFFFF7DA
:1013F00007FE10BD4A0000207FB5684600F070FA75
:1014000010B16846FFF71AFF01F036FD0024CBE16A
:10141000C4EBC400FE4901EB80004088C0F300200B
:1014200000287DD0C4EBC40001EB80004088C0F3ED
:10143000C120002875D1C4EBC40001EB80004088B6
:10144000C0F34120012836D1C4EBC401F04A02EBBD
:10145000810007F087FBC4EBC400ED4901EB80007D
:101460008088C0F3821005281CDAC4EBC40001EBAD
:1014700080004088C0F34120012813D1C4EBC40090
:1014800001EB800080888009401CC4EBC401E04A65
:1014900002EB8101898860F38811C4EBC40002EB80
:1014A00080008180DB480088C4EBC401D84A02EB8D
:1014B000810108817BE1C4EBC400D54901EB8000C8
:1014C0004088C0F3412002284ED1C4EBC40001EB98
:1014D0008000808820F4E070C4EBC401CC4A02EBA9
:1014E00081018880C4EBC401134603EB8101CA88E3
:1014F000C4EBC40103EB81010889C649098808F0DF
:101500004CF900288DD0C4EBC400C14901EB800028
:10151000408820F4C06000F50070C4EBC40101E015
:1015200021E053E0BA4A02EB81014880C4EBC400D9
:10153000114601EB80000079C0F383000A2812DA1B
:10154000C4EBC40001EB800000798008401CC4EBB0
:10155000C40102EB8101898860F38501C4EBC400FA
:1015600002EB800081801DE1C4EBC400A84901EBBF
:1015700080004088C0F341200328F4D1C4EBC400AC
:1015800001EB8000808820F4E070C4EBC401A04A25
:1015900002EB81018880C4EBC400114601EB80009E
:1015A000808820F03C00C4EBC40102EB81018880FC
:1015B000C4EBC400114601EB8000408820F4C060F9
:1015C000C4EBC40102EB81014880EBE0C4EBC40032
:1015D0008F4901EB80004088C0F3C1200128C2D1AF
:1015E000C4EBC4018A4B03EB8101CA88C4EBC4017C
:1015F00003EB810108898749098808F0CEF8E8B330
:10160000C4EBC400824901EB80004088C0F3412054
:10161000012838D1C4EBC4017D4A02EB810007F0F8
:10162000A1FAC4EBC4007A4901EB80008088C0F3C2
:10163000821005281CDAC4EBC40001EB800040884E
:10164000C0F34120012813D1C4EBC40001EB80009A
:1016500080888009401CC4EBC4016D4A02EB810103
:10166000898860F38811C4EBC40002EB800081809C
:1016700068480088C4EBC401654A00E003E002EB5F
:101680008101088193E0C4EBC400614901EB800053
:101690004088C0F3412002284AD1C4EBC40001EBCA
:1016A0008000808820F4E070C4EBC401584A02EB4B
:1016B00081018880C4EBC401134603EB8101CA8811
:1016C000C4EBC40103EB810108895249098808F081
:1016D00064F860B3C4EBC4004D4901EB800040885E
:1016E00020F4C06000F50070C4EBC401484A02EB6E
:1016F00081014880C4EBC400114601EB80000079F1
:10170000C0F383000A284DDAC4EBC40001EB80006B
:1017100000798008401CC4EBC40102EB8101898878
:1017200060F38501C4EBC40002EB8000818039E0E6
:10173000C4EBC400364901EB80004088C0F341206F
:1017400003282FD1C4EBC40001EB8000808820F473
:10175000E070C4EBC4012E4A02EB81018880C4EB27
:10176000C400114601EB8000808820F03C00C4EBEF
:10177000C40102EB8101888026480088C4EBC401C3
:1017800002EB81010881C4EBC400114601EB80002B
:10179000408820F4C06000F50070C4EBC40102EB87
:1017A00081014880601CC4B2242CFFF631AE00BF1A
:1017B000002500241FE0C4EBC400154901EB8000A4
:1017C0008088C0F3821005280EDB45F00205C4EBCB
:1017D000C40001EB8000808820F4E070C4EBC401F9
:1017E0000B4A02EB81018880FFF70EFC08B145F03F
:1017F0000405601CC4B2242CDDDB1DB1FFF7FAFB2D
:10180000FFF7FEFB044800782843034908707FBDBA
:10181000882C00204A0000204C0000202DE9F04FC9
:1018200087B004460F4690469946DDE910ABBAF101
:10183000080F01DD4FF0080A029401940397CDF8D8
:101840001080CDF814A0BBF1000F01D1084E00E0CC
:10185000084E6B464A4601A9304601F0A2FD0546F6
:1018600015B1304602F02CFA284607B0BDE8F08FDB
:10187000A0020020C8020020014608784A78904261
:1018800001D1012070470020FCE70FB470B5044679
:10189000204600F016F818B1002070BC5DF814FB6B
:1018A0006178201D00EB011005A92EC92EC06078BB
:1018B000401C142190FBF1F201FB1200607001202A
:1018C000EBE701464878401C142290FBF2F302FB40
:1018D00013000A78904201D1012070470020FCE7F4
:1018E00010B504460C48FFF7C7FF08B1002010BD33
:1018F00009480178001D00EB01130FCB84E80F00AD
:1019000005480078401C142190FBF1F201FB120005
:10191000014908700120EAE72C0B0020C0EBC00150
:101920000B4A02EB81014988C1F3C12171B9C0EBB7
:10193000C00102EB8101498821F4C06101F5007109
:10194000C0EBC002024B03EB8202518070470000E3
:10195000882C00204FF480620649074809F0FCF803
:1019600007E006F0ABFA054808F00AFE0A200BF083
:10197000D2FEF6E7D4360020BC360020A236002086
:1019800070B502460C46FF25FF2309E012F8010B53
:1019900080EA05010648405C80EA03050548435C8F
:1019A000201EA4F10106B4B2F0D143EA052070BDB7
:1019B000DC3D0108DC3E010810B51C4800681C49EC
:1019C00088421AD11B48B0F900101B4806F003FDED
:1019D0001848B0F902101848303006F0FCFC1548E1
:1019E000B0F904101448603006F0F5FC1148B0F965
:1019F00006101148903006F0EEFC0F4806F0E2FCAD
:101A00000E4908800C48303006F0DCFC0B49488059
:101A10000948603006F0D6FC0849888006489030B6
:101A200006F0D0FC0549C88010BD00001C01002054
:101A3000A5230008D200002084300020E20000200E
:101A400010B5024802F044FA10BD00004809002019
:101A500010B5024802F03CFA10BD0000A8060020B4
:101A600010B5024802F034FA10BD0000A8090020A9
:101A700010B5024802F02CFA10BD00000807002043
:101A800010B5024802F024FA10BD000088080020BA
:101A900010B5024802F01CFA10BD0000E808002052
:101AA00010B5024802F014FA10BD000068070020CB
:101AB00010B5024802F00CFA10BD000040020020F0
:101AC00010B5024802F004FA10BD0000B004002076
:101AD00010B5024802F0FCF910BD0000080A002011
:101AE00010B5024802F0F4F910BD0000C80700204C
:101AF00010B5024802F0ECF910BD0000680A0020A1
:101B000010B5024802F0E4F910BD000028080020DA
:101B10000146087810381823B0FBF3F20848805CBF
:101B2000C865032A05D908686FF30900001D886598
:101B300003E008686FF309008865886D704700004E
:101B40000AE90008014600208A6A8B69CBB932B1E4
:101B5000012A0DD0022A03D0032A10D10EE000BFC3
:101B6000CB6A03F08073B3F1807F00D1012007E0DE
:101B7000CB6AB3F1C07F00D1012001E000E000BFDB
:101B800034E08B69B3F5005F1AD132B1012A07D076
:101B9000022A03D0032A11D10AE000BF01200EE07F
:101BA000CB6A03F08073B3F1807F00D1012006E09F
:101BB000CB6AB3F1C07F00D1012000E000BF15E087
:101BC00032B1012A05D0022A04D0032A0CD103E045
:101BD00000BF00BF012008E0CB6A03F08073B3F1BF
:101BE000807F00D1012000E000BF00BF704730B50A
:101BF0000468246824F4802405682C600468636009
:101C00008468402C04D10468A2600468E16003E0A9
:101C10000468A1600468E26030BD00003C490870BF
:101C20003C49097805296CD2DFE801F00311263D13
:101C30004B00374909780D2905D136490978491CE7
:101C4000344A117002E00021324A11705DE03049DF
:101C500009780A2908D100212F4A11702D490978E5
:101C6000491C2C4A117006E0294909780D2902D037
:101C70000021284A117048E025490978274A264B57
:101C80001B78D15424490978491C234A1170114604
:101C90000978182906DB002111701E490978491CB2
:101CA0001C4A117031E01A4909780A2905D11949ED
:101CB0000978491C174A117002E00021154A117079
:101CC00023E0134909780D2917D1144991ED000A31
:101CD000134981ED000A114991ED030A114981ED83
:101CE000000A0E4991ED040A0F4981ED000A0F49DF
:101CF000096811B901210D4A11600021054A1170CE
:101D000003E00021034A117000BF00BF70470000CC
:101D1000C5000020C6000020C70000207C32002043
:101D2000B8000020B0000020B4000020BC0000205B
:101D3000704700007CB5064600254AE0002444E0D8
:101D400005EB450006EB400030F81400B0F5784F85
:101D50000DD101200090AF2205FB02F16422019019
:101D600004FB02F00123402209F032FC2BE005EBDA
:101D7000450006EB400030F81400B0F5FC6F0DD1C3
:101D800001200090AF2205FB02F16422019004FBC8
:101D900002F00223402209F01BFC14E005EB450091
:101DA00006EB400030F814001F280CD101200090F1
:101DB000AF2205FB02F16422019004FB02F0032331
:101DC000402209F005FC601CC4B2032CB8DB681C7F
:101DD000C5B2022DB2DB03A340225A21642009F0D0
:101DE0006EFC7CBD2B00000070B50446214D2D68B3
:101DF000214EB5420FD1214D2D78042D02DB032554
:101E00001E4E35701E4D1D4E367805EB46004FF4C4
:101E1000FA4253421421ACB9164D2D68164EB54204
:101E200026D1B0F90050561AB54204DC05880D449D
:101E30002DB205801CE0B0F90050954218DA15B2B9
:101E4000058015E0012C13D10A4D2D680A4EB542CC
:101E50000ED1B0F900505E18B54204DB05886D1A4A
:101E60002DB2058004E0B0F900509D4200DD0380F2
:101E700070BD00001C010020A523000819010020EE
:101E8000D200002010B50348006810B10148006876
:101E9000804710BD1C010020002007490870074939
:101EA0000870FF200649087000200649087006489F
:101EB00000680649086070471801002019010020D9
:101EC0001A0100201B010020F83F01081C0100201E
:101ED00010B512480068124988421DD11148007897
:101EE00030B1012808D002280BD0032813D10DE00F
:101EF0000D4806F0DDFB0EE00B48183006F0D8FB6D
:101F000009E00948303006F0D3FB04E006484830C9
:101F100006F0CEFB00BF00BF10BD00001C0100207A
:101F2000FD2700081901002074310020164A1268AC
:101F3000164B9A4201D1032105E0134A1268144B53
:101F40009A4200D10321104A1268114B9A4204D0E0
:101F50000D4A12680D4B9A4215D148B90D4A1278B4
:101F60008A4205DA0B4A1278521C0A4B1A700AE0B0
:101F7000012808D1074A1278002A04DD054A1278A0
:101F8000521E044B1A7070471C010020FD270008E8
:101F9000A523000819010020024909680144014AEB
:101FA0001160704720010020154A1278012A26D1BD
:101FB000144A1278144B1B789A4220D1012150B94F
:101FC000124A1278072A06DA0021104A1278521CA7
:101FD0000E4B1A700BE0012809D10C4A1278012A25
:101FE00005DD0021094A1278521E084B1A7031B9DA
:101FF0000022034B1A70064A1268064B1A6070479B
:102000001B0100201A0100201901002018010020E6
:10201000F83F01081C0100201CB50F4800780F494B
:102020000978884203D00D4800780B4908700024D5
:102030000EE000200421CDE90010094830F91430E9
:102040002001811C0C225C2009F0C2FA601CC4B281
:10205000062CEEDB1CBD00001A0100201901002037
:102060000C01002010B57748007800287ED11F2091
:1020700009F076F8002074490870FF207349087051
:102080007348007810B9012071490870714870498F
:10209000097850F8210070490860084600686F49C7
:1020A00088420CD14FF0FF306D490880488088800D
:1020B000C8806C49088048808880C880BDE0664838
:1020C0000068694988421ED168A30C2205210620B8
:1020D00009F0F5FA6BA30C222521022009F0EFFA92
:1020E0006CA30C223521022009F0E9FA6CA30C2222
:1020F0006521102009F0E3FA4FF6FF706C49088063
:102100004880888099E0544800686A49884206D12E
:102110005A206949087048708870C8708DE04E4830
:1021200000686649884232D165A30C220A211A2030
:1021300009F0C5FA65A30C221A212A2009F0BFFA7A
:1021400064A30C224221022009F0B9FA63A30C22F5
:102150004221084609F0B3FA62A30C225A21022058
:1021600009F0ADFA61A30C225A2100E068E0422098
:1021700009F0A5FA5F48006864385F4908604FF6C7
:10218000FF705E49088048808880C88055E03248EA
:1021900000685B4988421ED15AA30C2205212820E1
:1021A00009F08DFA59A30C221521022009F087FAB3
:1021B0005AA30C222521022009F081FA5BA30C22EC
:1021C0003521022009F07BFA4FF6FF70384908806C
:1021D0004880888031E020480068584988422CD1E6
:1021E00057A30C220221084609F069FA58A30C22D1
:1021F0001221022009F063FA59A30C2222210220A5
:1022000009F05DFA5AA30C223221022009F057FA94
:102210005BA30C224221022009F051FA5CA30C229C
:102220005221022009F04BFA4FF0FF305C49088040
:1022300048808880C8800881488101200149087051
:1022400010BD00001B010020190100201A01002010
:1022500018010020F83F01081C010020A5230008F8
:10226000DA000020EA000020152500085B456E63B7
:102270006F64657243616C6962726174696E675DF7
:102280000000000054656D70657261747572653A86
:1022900000000000526573756C74733A0000000012
:1022A000446F75626C6520436C69636B204B310031
:1022B00006010020FD270008FA0000203929000847
:1022C000556C747261736F6E696300005369676E59
:1022D000616C000044415441313A00004441544192
:1022E000323A000044415441333A000044415441E1
:1022F000343A00002001002024010020FE000020CC
:10230000B12500084D50553630353000526F6C6C99
:10231000203A202020202E204300000050697463C2
:10232000683A202020202E204300000059617720A9
:10233000203A202020202E204300000019200008F1
:1023400042555331506F736974696F6E3A000000E3
:1023500042555332506F736974696F6E3A000000D2
:1023600042555333506F736974696F6E3A000000C1
:1023700042555334506F736974696F6E3A000000B0
:1023800042555335506F736974696F6E3A0000009F
:1023900042555336506F736974696F6E3A0000008E
:1023A0000C0100202DE9FC4153480078534909787D
:1023B000884252D0514800784F49087000244AE0C2
:1023C0004D480078A04212D11F214FF6FF7008F04F
:1023D00031FFC4EBC4004A4A02EB400304EB840023
:1023E0008000811C0C22022009F069F911E04FF6EF
:1023F000FF711F2008F01EFFC4EBC400404A02EB2F
:10240000400304EB84008000811C0C22022009F0B0
:1024100056F94FF6FF711F2008F00CFF04EBD47241
:102420005210121D02EB82029200921C91B22546BC
:1024300004EBD5725210A4EB42029201921C90B2AE
:10244000221DC2EBC2022E4F07EB42030C2209F001
:1024500036F9601CC4B2042CB2DB002448E02948E1
:1024600030F91400284931F91410884214D0264854
:1024700030F81400234921F8140000200421CDE98C
:102480000010214830F9143004EB84008000811CD6
:102490000C22562009F0E8F81C4830F914001C49B9
:1024A00031F91410884221D0194830F81400174926
:1024B00021F814000020042104EBD4725210121DE4
:1024C00002EB82029200921CCDE9001091B22546E7
:1024D00004EBD5725210A4EB42029201283290B262
:1024E0000B4A32F914300C2209F0BEF8601CC4B259
:1024F000042CB4DBBDE8FC811A0100201901002086
:1025000018400108DA000020D2000020EA00002074
:10251000E20000201CB52048007820490978884254
:1025200003D01E4800781C4908701D48006868B137
:1025300000200421CDE9001019480C222521036850
:10254000482009F045F80020154908601548007832
:10255000012820D100201349087013A30C22352133
:10256000342009F0ACF840F2755008F04FFA7820AA
:1025700001F08EFE4FF4C46008F048FA642001F0C8
:1025800087FE4FF4DC6008F041FA782001F080FE0D
:10259000002008F03BFA1CBD1A01002019010020A0
:1025A000C0000020C4000020446F6E6521000000C0
:1025B00070B52DED028B82B02B4800782B4909783D
:1025C000884203D02948007827490870002445E054
:1025D000274830F81410274830F9140081423BD0C6
:1025E000244830F81400224921F81400084630F835
:1025F0001400B421484300EE100AB8EEC00ADFED23
:102600001E0A80EE208AB2EE040A28EE000ABCEE12
:10261000C00A10EE100A85B20A2095FBF0F60020E1
:102620000321CDE90010200100F1150133460C22F1
:102630002A2008F0CDFF0A2095FBF0F100FB11568F
:1026400000200121CDE90010200100F115013346E1
:102650000C22412008F0BCFF601CC4B2032CB7DB85
:1026600002B0BDEC028B70BD1A01002019010020E0
:1026700006010020FE310020000000471CB5514833
:10268000007851490978884206D04F4800784D4972
:10269000087000204D4908804C480088401C4B4978
:1026A00008800846008801280CD100200521CDE9CA
:1026B00000104748B0F900300C2202210A2008F02F
:1026C000D3FF42E04148008807280CD100200521B3
:1026D000CDE900103E48B0F902300C2212210A2048
:1026E00008F0C2FF31E0394800880E280CD10020E4
:1026F0000521CDE900103648B0F904300C22222122
:102700000A2008F0B1FF20E03048008815281CD1CD
:1027100005F08CFC04460020052123460C22CDE95F
:10272000001032210A2008F09FFF05F089FC0446C2
:102730000020052123460C22CDE9001042210A2069
:1027400008F092FF002021490880224800780128E3
:102750000ED10020204908701E4908701F480088CB
:1027600008F0FEFC1E48FFF7E5FA1F201749088015
:102770001C480068012824D14FF4DC6008F046F9B9
:10278000782001F085FD4FF4C46008F03FF9642023
:1027900001F07EFD40F2755008F038F9782001F024
:1027A00077FD002008F032F902200E4908600B483E
:1027B000008808F0D5FC0CA30C227821104608F004
:1027C0007EFF1CBD1A0100201901002028010020F5
:1027D0009800002094000020D0000020200000205D
:1027E00082000020BC000020436C69636B204B35E5
:1027F00020746F20537461727400000038B546482D
:10280000007846490978884236D0444800784249E1
:10281000087000242EE040480078A04214D11F2107
:102820004FF6FF7008F006FD04F10800C0EBC00091
:102830003B4A02EB4003C4EB04104000811C0C2215
:10284000022008F03CFF13E04FF6FF711F2008F054
:10285000F1FC04F10800C0EBC000314A02EB400378
:10286000C4EB04104000811C0C22022008F027FF5A
:10287000601CC4B2042CCEDB00244AE02948005D71
:102880002949095D884203D12848005D02283ED1CC
:102890002648005D022805D14FF478411F2008F03A
:1028A000C9FC04E04FF4FC611F2008F0C3FC1D4884
:1028B000005D1D490855002522E01B48005D2841A8
:1028C00000F0010068B10020C4EB0412520002F1D4
:1028D00010012A010090901C102315A204F0DFFDC6
:1028E0000CE00020C4EB0412520002F110012A0196
:1028F0000090901C10230FA204F0D1FD681CC5B2FB
:10290000082DDADB4FF6FF711F2008F093FC601CE6
:10291000C4B2042CB2DB38BD1A010020190100201A
:1029200018400108F6000020FA000020F200002004
:10293000A1F10000A1F000002DE9FC411F48007842
:102940001F490978884203D01D4800781B49087048
:1029500064221C4801681C48006806F00BFF50B355
:10296000002426E000200421254604EBD5725210F5
:1029700002EB42020832D200921CCDE9001091B263
:10298000264604EBD6725210A4EB420202EB42122E
:102990004227B7EB420F01D1422200E0022202F1AE
:1029A00024000A4A32F814300C2208F011FE601C90
:1029B000C4B2042CD6DBBDE8FC8100001A01002063
:1029C000190100202001002024010020FE00002029
:1029D00010B54FF4805001F04BFD4FF4005001F062
:1029E00047FD4FF4804001F043FD4FF4004001F0FB
:1029F0003FFD10BD10B50446B4F5805F09D0B4F5B5
:102A0000005F0AD0B4F5804F0CD0B4F5004F13D15D
:102A10000DE00A4804F002FB0EE008484C3004F0D8
:102A2000FDFA09E00548983004F0F8FA04E003489C
:102A3000E43004F0F3FA00BF00BF10BD582B0020B3
:102A400001490860704700001C000020044800682D
:102A500000F4805008B1012070470020FCE700001E
:102A6000100C02400448006800F4005008B1012036
:102A700070470020FCE70000100C0240044800688A
:102A800000F4804008B1012070470020FCE70000FE
:102A9000100C02400448006800F4004008B1012016
:102AA00070470020FCE70000100C024072B600BF27
:102AB000FEE7000010B5002201B909E0012901D1AB
:102AC0000A0205E0022901D10A0201E04FF4407236
:102AD0000E4B1B6823F440730C4C236023461B6889
:102AE0001343236023461B6823F0F8032360234627
:102AF0001B68022444EAC0042343044C2360234699
:102B00001B6843F48033236010BD0000103C02407A
:102B10001C48006800F40070B0B11A48006820F446
:102B200000701849086000BF0846006840F4006063
:102B300008600846006820F40060086000BF08468E
:102B4000006840F4007008600E48006800F480607F
:102B5000B0B10C48006820F480600A49086000BFEA
:102B60000846006840F4805008600846006820F479
:102B70008050086000BF0846006840F4806008602C
:102B800070470000003C02400A4A126822F440727A
:102B9000084B1A601A46126842F004021A601A467C
:102BA00012684FF4803343EA00231A43014B1A6042
:102BB00070470000103C0240074A126822F440723D
:102BC000054B1A601A4612681A601A46126842F0DB
:102BD00001021A6001707047103C024010B50D49A7
:102BE000096821F440710B4C21602146096841F4C9
:102BF000407121602146096841F0010121600260B5
:102C000000BF00BF00BFBFF36F8F00BF00BF00BF9A
:102C1000436010BD103C0240084A126822F4407222
:102C2000064B1A601A46126842F480721A601A46FD
:102C3000126842F001021A6001807047103C0240A5
:102C4000084A126822F44072064B1A601A4612684B
:102C500042F400721A601A46126842F001021A60C9
:102C600001607047103C02402348006800F01000EB
:102C700040B12248C06940F010002049C8611020CE
:102C80001D4908601C48006800F0200040B11B4846
:102C9000C06940F008001949C86120201649086041
:102CA0001548006800F0400040B11448C06940F089
:102CB00004001249C86140200F4908600E480068AE
:102CC00000F0800040B10D48C06940F002000B499F
:102CD000C8618020084908600748006800F00200C9
:102CE00040B10648C06940F020000449C861022094
:102CF00001490860704700000C3C0240C80A0020EF
:102D000070B50446002500201449C86101F0BCFCE0
:102D1000054609E0601C38B124B101F0B5FC401B48
:102D2000A04201D9032070BD0D48006800F4803036
:102D30000028EFD10A48006800F0010010B101201E
:102D4000074908600648006800F0F20018B1FFF774
:102D50008BFF0120E7E70020E5E70000C80A00201C
:102D60000C3C02402DE9F84F0546884691469A46AC
:102D7000AB461020009000246EE004EB04103949AB
:102D800011F8100099F80010884262D104EB041089
:102D9000344901EB4000407899F80110884258D13D
:102DA000002641E000273AE0BAF1000F18D104EB09
:102DB00004102C4901EB4000801C805D80213941CA
:102DC000084030B1284801882848008804F0BCFB3E
:102DD00023E0254801882648008804F0B5FB1CE064
:102DE00004EB04101F4901EB4000801C805D802132
:102DF0003941084028B11C4801881C48008804F06B
:102E0000A3FB681C85B2A5EB0B00102805D15D461D
:102E100008F101001FFA80F803E0781CC7B2082F00
:102E2000C2DB00BF701CC6B2202EBBDB08F10F0056
:102E300083B205F10F0082B24146284608F05BF9E3
:102E40000948008841000B4808F090FC0020064922
:102E5000088000BF601C84B2009884428DDBBDE80E
:102E6000F88F00008AEA00082400002022000020D9
:102E700020000020381100207047000010B50446E3
:102E80002146024805F0A2F910BD0000882C002060
:102E900038B502460020009000BF92F83C0001289F
:102EA00001D1022038BD012082F83C0000BF086833
:102EB000092816D91068C0680C780A3C04EB440550
:102EC0000724AC40A0431468E0600C780A3C04EB93
:102ED00044048868A0401468E46820431468E060F3
:102EE00013E0106800690C7804EB44050724AC403B
:102EF000A043146820610C7804EB44048868A04067
:102F0000146824692043146820614868072817D290
:102F10001068406B0C79641E04EB84051F24AC40E0
:102F2000A04314686063088880B20C79641E04EBC7
:102F30008404A0401468646B20431468606331E02B
:102F400048680D2817D21068006B0C79E41F04EB59
:102F500084051F24AC40A04314682063088880B215
:102F60000C79E41F04EB8404A0401468246B204314
:102F70001468206316E01068C06A0C790D3C04EBFD
:102F800084051F24AC40A0431468E062088880B226
:102F90000C790D3C04EB8404A0401468E46A2043DF
:102FA0001468E062194B1A4C1068A04206D10868F8
:102FB000122803D1586840F480005860144C1068FF
:102FC000A0421CD10868102802D00868112816D128
:102FD000586840F400005860086810280FD10D4868
:102FE00000680D4CB0FBF4F000EB80004000009056
:102FF00002E00098401E009000980028F9D100BF20
:10300000002082F83C0000BF00BF4BE700230140D6
:10301000002001401000002040420F0070B506461D
:103020000024002505E0174850F825000444681CDA
:1030300085B20A2DF7DB0A20B4FBF0F440F6E44039
:10304000604340F6FF71B0FBF1F40F480068C0EB3D
:10305000401020440D49096808440C49086008469E
:103060000068400908490860084800680968A0EB42
:103070004110064908600648006810B1044800681D
:10308000804770BD38130020300000202C00002045
:10309000280000207047704770B5044600250CB921
:1030A000012070BD1549A06A884200D000BF206C85
:1030B00030B9204600F024F80020606484F83C0019
:1030C000206C00F0100088B9206C20F4885040F08B
:1030D000020020642046FDF7A9FD00206064206CFA
:1030E00020F0020040F00100206400E0012500BF54
:1030F000002084F83C0000BF2846D2E70100000F02
:1031000010B586B00446142101A8FDF79BFB2849A1
:10311000206888424AD100BF0020009025480068FE
:1031200040F48070234908600846006800F480700D
:10313000009000BF00BF00BF002000901D48143861
:10314000006840F004001B49143908600846006814
:1031500000F00400009000BF00BF20200190032079
:1031600002900020039001A9134801F08FF9134841
:103170001349086000204860002111488160C16047
:103180004FF4806101618900416189008161891189
:10319000C16100210162416200F0BAFF08B1FFF78E
:1031A00085FC00BF0648A063846300BF06B010BD65
:1031B00000200140443802400008024010640240F0
:1031C00040020020F8B504460D4616460020009047
:1031D00000BF94F83C00012801D10220F8BD012075
:1031E00084F83C0000BF2068806800F00100A0B9AE
:1031F0002068806840F001002168886055480068B8
:103200005549B0FBF1F000EB4000009002E000985F
:10321000401E009000980028F9D12068806800F4D2
:103220008070B0F5807F05D12068806820F48070C0
:10323000216888602068806800F0010000287ED046
:10324000206C40F20161884340F480702064206863
:10325000406800F4806028B1206C20F4005040F4F5
:1032600080502064206C00F48050B0F5805F04D161
:10327000606C20F00600606401E00020606400BF24
:10328000002084F83C0000BF344F3548A16BC86370
:103290003448A16B08643448A16BC8646FF0220005
:1032A000216808602068406840F0806021684860BC
:1032B0002068806840F4807021688860226802F18C
:1032C0004C0133462A46A06B00F098FF786800F066
:1032D0001F0018BB25492068884213D02449206864
:1032E000884204D1381D006800F01F0050B1214908
:1032F000206888422BD11948001D006800F01F008B
:10330000102824D22068806800F04050F8B9206866
:10331000806840F080402168886018E01349206888
:10332000884214D12068806800F0405078B9206845
:10333000806840F080402168886008E0FFE7206CEA
:1033400040F010002064606C40F0010060640020D8
:1033500044E700001000002040420F00002301401D
:10336000870B00081F0C0008050C00080020014016
:10337000002101400022014010B5024692F82030A1
:10338000012B01D0022B06D1106840690843146854
:103390006061002010BD506A40F48020506201201E
:1033A000F8E7F0B504460D461E4694F820702068F4
:1033B0008368A86800B900E000BF012F01D0022F88
:1033C0007CD103F0806030B903F0006018B903F0DD
:1033D0008050002873D0C3F30161022905D9606AC7
:1033E00040F4000060620120F0BD012088403060A0
:1033F000A86860B9B5F800C0E86840EA4C5C20688D
:1034000000F5C07000EB0110C0F800C00FE0D5E976
:1034100001C040EACC00D5F80CC040EA0C00D4F85A
:1034200000C00CF5C07C0CEB011CCCF80000D5F8FA
:1034300010C0206800F5C07000EB0110C0F804C097
:10344000287D01280ED1206800F5C07000EB011026
:10345000406840F4807C206800F5C07000EB0110EB
:10346000C0F804C0D079000692F806C040EA0C40CB
:1034700092F805C040EA0C2C10794CEA000C206848
:1034800000F5C07000EB0110C0F80CC0D078000649
:1034900092F802C040EA0C4092F801C040EA0C20C9
:1034A00092F800C040EA0C00D4F800C00CF5C07CD3
:1034B0000CEB011CCCF80800206801E016E00FE0DE
:1034C00000F5C07000EB0110006840F0010C2068AE
:1034D00000F5C07000EB0110C0F800C0002083E7C9
:1034E000606A40F40010606201207DE7606A40F489
:1034F00080206062012077E7F0B504460A46216823
:1035000094F82050012D01D0022D7ED1424901F5C1
:103510000071086840F001000860086820F47C50E1
:1035200008600868566A40EA06200860107D00F0CE
:103530001F06012000FA06F3C8699843C861A1F587
:103540000071D069C8B9D1F80C029843C1F80C02D7
:10355000908880B2968940EA064601F51070576956
:1035600040F83760108880B2168940EA064601F5B7
:103570001070576900EBC7004660D069012819D167
:10358000D1F80C021843C1F80C02908880B216885A
:1035900040EA064601F51070576940F83760908997
:1035A00080B2168940EA064601F51070576900EBB3
:1035B000C7004660906928B9D1F804029843C1F861
:1035C000040204E0D1F804021843C1F804021069AF
:1035D00028B9D1F814029843C1F8140204E0D1F8D4
:1035E00014021843C1F81402106A012804D1D1F85A
:1035F0001C021843C1F81C02D1F8000220F001009F
:10360000C1F800020020F0BDFFE7606A40F48020AE
:1036100060620120F7E7000000640040704770B569
:10362000044694F82050012D01D0022D7DD151B9CE
:103630002068C06800F0030080B9606A40F40010A0
:103640006062012070BD2068006900F0030028B9A5
:10365000606A40F4001060620120F3E7206800F522
:10366000D87000EB0110006800F0040090609068D2
:1036700040B9206800F5D87000EB01100068400DDB
:10368000106007E0206800F5D87000EB01100068BA
:10369000C0085060206800F5D87000EB0110006889
:1036A00000F00200D060206800F5D87000EB011037
:1036B000406800F00F001061206800F5D87000EB42
:1036C0000110406800F47F40000A9061206800F516
:1036D000D87000EB01104068000C5061206800F5C4
:1036E000D87000EB011080681870206800F5D87061
:1036F00000EB0110806800F47F40000A58702068D9
:1037000000F5D87000EB0110806800F47F00000C19
:103710009870206800F5D87000EB01108068000EEA
:10372000D870206800F5D87000E02FE000EB0110A1
:10373000C0681871206800F5D87000EB0110C068EF
:1037400000F47F40000A5871206800F5D87000EB43
:103750000110C06800F47F00000C9871206800F52B
:10376000D87000EB0110C068000ED87131B9206824
:10377000C06840F020002668F06005E0206800691D
:1037800040F020002668306100205BE7606A40F46A
:1037900080206062012055E72DE9F05F0446002596
:1037A000206846692068D0F80490206887682068FF
:1037B000D0F80CA02068D0F810B02068D0F818809D
:1037C00006F00100002855D007F00100C0B101202B
:1037D0002168886007F0020018B1204600F005FB60
:1037E0000EE007F0040010B145F4006508E007F0B2
:1037F000080010B145F4805502E0204600F0F4FACC
:1038000007F48070C8B14FF480702168886007F4B5
:10381000007018B1204600F0EAFA0EE007F480606C
:1038200010B145F4005508E007F4006010B145F40C
:10383000804502E0204600F0D9FA07F48030C8B194
:103840004FF480302168886007F4003018B12046BA
:1038500000F0CFFA0EE007F4802010B145F40045E7
:1038600008E007F4002010B145F4803502E020465E
:1038700000F0BEFA06F0080038B10AF0100020B1DE
:1038800045F4007510202168C86006F0040040B1BE
:103890000AF0080028B108202168C860204600F01E
:1038A00020FA06F0020038B12068C06800F003007A
:1038B00010B1204600F016FA06F0400038B10BF0C7
:1038C000100020B145F4806510202168086106F0E1
:1038D000200040B10BF0080028B1082021680861E1
:1038E000204600F04FFA06F0100038B12068006959
:1038F00000F0030010B1204600F045FA06F4003055
:1039000040B109F0100028B110202168486020461D
:1039100000F03AFA06F4803040B109F0080028B10E
:10392000082021684860204600F064FA06F4004050
:1039300088B309F0040078B306F4807020B108F071
:10394000010008B145F0010506F4007020B108F04F
:10395000020008B145F0020506F4806020B108F0CD
:10396000040008B145F0040506F40060A0B108F0B9
:10397000700088B108F07000402817D006DC1028CD
:103980000BD020280CD0302819D10CE0502810D0B2
:10399000602814D110E01DE019E045F008050FE0A3
:1039A00045F010050CE045F0200509E045F0400524
:1039B00006E045F0800503E045F4807500E000BFB7
:1039C00000BF2068806920F07000216888610420B1
:1039D000216848602DB1606A284360622046FFF785
:1039E0001DFEBDE8F09F70B504460CB9012070BD06
:1039F00094F8200010B9204600F0B0F82068006864
:103A000040F001002168086000F03EFE05460DE030
:103A100000F03AFE401B0A2808D9606A40F40030E2
:103A20006062052084F820000120E0E720684068FB
:103A300000F001000028EBD02068006820F00200B0
:103A40002168086000F020FE05460DE000F01CFE35
:103A5000401B0A2808D9606A40F4003060620520E3
:103A600084F820000120C2E72068406800F00200CE
:103A70000028EBD1207E012806D12068006840F0A4
:103A800080002168086005E02068006820F0800060
:103A900021680860607E012806D12068006840F037
:103AA00040002168086005E02068006820F04000C0
:103AB00021680860A07E012806D12068006840F0D7
:103AC00020002168086005E02068006820F02000E0
:103AD00021680860E07E012806D12068006820F097
:103AE00010002168086005E02068006840F01000C0
:103AF00021680860207F012806D12068006840F016
:103B000008002168086005E02068006820F00800CF
:103B100021680860607F012806D12068006840F0B5
:103B200004002168086005E02068006820F00400B7
:103B300021680860D4E902010843216908436169EA
:103B400008436168491E08432168C861002060621B
:103B5000012084F82000002049E7000010B586B05D
:103B60000446142101A8FCF76DFE4F4920688842E5
:103B700041D14E480068401C4C4908600846006826
:103B800001280FD100BF002000904948006840F094
:103B90000070474908600846006800F00070009017
:103BA00000BF00BF00BF00200090414810380068EF
:103BB00040F008003E49103908600846006800F0EF
:103BC0000800009000BF00BF032001900220029077
:103BD00000200390032004900920059001A9354896
:103BE00000F054FC00221146142000F0BFFD142008
:103BF00000F0ACFD55E030492068884251D100BF4B
:103C0000002000902A48006840F080602849086041
:103C10000846006800F08060009000BF00BF2348A5
:103C20000068401C214908600846006801280FD13F
:103C300000BF002000901E48006840F000701C4942
:103C400008600846006800F00070009000BF00BFE8
:103C500000BF0020009016481038006840F00200B5
:103C60001349103908600846006800F0020000900F
:103C700000BF00BF4FF4405001900220029000208E
:103C80000390032004900920059001A90B4800F03F
:103C9000FDFB00221146402000F068FD402000F0AE
:103CA00055FD06B010BD000000640040000000207B
:103CB00040380240000C024000680040000402400E
:103CC0000146002091F82020012A01D0022A02D1C9
:103CD00000234B6204E04B6A43F480234B620120D3
:103CE0007047704730B58FB0054606AB08AA002173
:103CF0002846FFF794FC00283DD1204928688842D7
:103D000003D100208DF8080002E001208DF80800A2
:103D10000A98C0B28DF809000B98C0B28DF80A005D
:103D20000C98C0B28DF80B009DF80900042802D150
:103D30000998059001E00898059000240DE09DF891
:103D40000B00A04204DD06A8015D03A8015502E0B6
:103D5000002103A80155601CC4B2082CEFDB0598B4
:103D60000090074802A90EC9FDF78FFD044614B95B
:103D700002A804F0F5F80FB030BD00000064004068
:103D80002C0B002070477047704770B5044694F8BC
:103D90002000012822D1022084F820002068006839
:103DA00020F001002168086000F06EFC05460DE07F
:103DB00000F06AFC401B0A2808D9606A40F4003011
:103DC0006062052084F82000012070BD20684068F2
:103DD00000F001000028EBD16062F6E7606A40F471
:103DE000002060620120F0E770477047704770471D
:103DF00070477047704770B50446A56D00F044FCED
:103E0000064694F83500022808D08020606500BF7F
:103E1000002084F8340000BF012070BD20680068D5
:103E200020F01600216808602068406920F08000BA
:103E300021684861206C08B9A06C28B1206800682E
:103E400020F00800216808602068006820F0010068
:103E50002168086010E000F017FC801B05280BD9D2
:103E600020206065032084F8350000BF002084F81E
:103E7000340000BF0320D0E72068006800F0010094
:103E80000028E8D194F85C103F208840A860012009
:103E900084F8350000BF002084F8340000BF00BF64
:103EA000BBE7014691F83500022803D08020486521
:103EB00001207047052081F835000868006820F06F
:103EC00001000A6810600020F3E70146486D704762
:103ED000F8B50446002000908C4800684FF4165155
:103EE000B0FBF1F7A56D2E6894F85C1008208840AF
:103EF000304098B12068006800F0040070B120687C
:103F0000006820F004002168086094F85C10082024
:103F10008840A860606D40F00100606594F85C1016
:103F200001208840304068B12068406900F080007E
:103F300040B194F85C1001208840A860606D40F0AA
:103F40000200606594F85C1004208840304068B13D
:103F50002068006800F0020040B194F85C10042072
:103F60008840A860606D40F00400606594F85C10C3
:103F700010208840304078B32068006800F00800C6
:103F800050B394F85C1010208840A8602068006846
:103F900000F4802080B12068006800F4002028B977
:103FA000206CC8B12046216C884715E0A06C98B100
:103FB0002046A16C88470FE02068006800F48070FC
:103FC00028B92068006820F0080021680860206C8B
:103FD00010B12046216C884794F85C10202088405E
:103FE0003040002865D02068006800F010000028EC
:103FF0005FD094F85C1020208840A86094F83500C9
:10400000052828D12068006820F016002168086083
:104010002068406920F0800021684861206C08B960
:10402000A06C28B12068006820F0080021680860B2
:1040300094F85C103F208840A860012084F8350087
:1040400000BF002084F8340000BF206D10B120466E
:10405000216D8847F8BD2068006800F4802080B199
:104060002068006800F4002028B9606C10B1204678
:10407000616C88471DE0E06BD8B12046E16B884752
:1040800017E02068006800F4807068B92068006854
:1040900020F0100021680860012084F8350000BF7E
:1040A000002084F8340000BFE06B10B12046E16BC3
:1040B0008847606D38B3606D00F00100F0B10520F5
:1040C00084F835002068006820F00100216808604D
:1040D00000BF0098401C0090B84200D905E020685D
:1040E000006800F001000028F3D100BF012084F82F
:1040F000350000BF002084F8340000BFE06C10B130
:104100002046E16C884700BFA4E7000010000020B3
:104110002DE9F0410446002500F0B6FA074614B92F
:104120000120BDE8F081606A00B100BF022084F880
:10413000350000BF002084F8340000BF206800680C
:1041400020F00100216808600AE000F09DFAC01B21
:10415000052805D920206065032084F83500E0E7B4
:104160002068006800F001000028EED12068056892
:1041700021480540D4E901010843E1680843216969
:10418000084361690843A1690843E1690843216A5A
:1041900008430543606A042803D1D4E90B010843AE
:1041A0000543206805602068456925F00705606AB9
:1041B0000543606A04280DD1A06A0543E06A48B14E
:1041C0002046FDF7BFFC28B140206065012084F83F
:1041D0003500A6E7206845612046FDF799FC0646B4
:1041E00094F85C103F208840B0600020606501209A
:1041F00084F83500002094E73F8010F02DE9F04767
:1042000004460D4616461F464FF00008D4F8589055
:1042100000BF94F83400012802D10220BDE8F087E5
:10422000012084F8340000BF94F83500012825D11E
:10423000022084F83500002060653B46324629465E
:104240002046FDF7D4FC94F85C103F208840C9F864
:1042500008002068006840F0160021680860206CA3
:1042600028B12068006840F00800216808602068D4
:10427000006840F001002168086006E000BF0020EF
:1042800084F8340000BF4FF002084046C6E7000043
:1042900031B50098401C20B10B49097800980844BA
:1042A000009009F063FA18B1009809F034FA09E0B7
:1042B000002404E04FF47A7002F0A2FD641C009820
:1042C0008442F7D338BD00000C0000202DE9F041F6
:1042D00004460E460127002500BF2548007E012820
:1042E00002D10220BDE8F08101202149087600BFFB
:1042F0004CF25030FEF704FD0746002F31D1401E2E
:104300003060206801280FD1207C6168FEF73CFCFA
:104310004CF25030FEF7F4FC07461648006820F0D7
:104320000400144908601AE0A56812E0217C2846C0
:10433000FEF7C0FB4CF25030FEF7E2FC07460D489A
:10434000006820F0FA000B4908600FB1356005E005
:104350006D1CD4E902100844A842E7D800BFFEF75C
:10436000D7FB00BF00200249087600BF3846B9E7F6
:10437000C80A0020103C02400348006840F000409A
:104380000149086000207047103C02402DE9F041CF
:1043900006460F4614461D464FF0010800BF1F4851
:1043A000007E012802D10220BDE8F08101201B49D6
:1043B000087600BF4CF25030FEF7A2FC8046B8F100
:1043C000000F23D126B9E1B23846FEF7F5FB12E023
:1043D000012E04D1A1B23846FEF71EFC0BE0022EDE
:1043E00004D121463846FEF72BFC04E022462B463A
:1043F0003846FEF7F3FB4CF25030FEF781FC804666
:104400000748006820F001000549086000BF00204F
:104410000249087600BF4046C6E70000C80A0020EF
:10442000103C024000200949096801F0004159B1DF
:104430000749064A0C3A11600649116003490968A8
:1044400001F0004101B1012070470000103C024022
:1044500023016745AB89EFCD10B5044603480068DA
:1044600018B1204601490968884710BD1C0000208A
:1044700010B5044604480068204020B1024804609A
:104480002046FFF7E9FF10BD143C0140F8B5024695
:104490000B460025002400200021D5E0012606FA65
:1044A00001F51E6806EA0504AC4274D11E7906F0D7
:1044B0000306012E04D01E7906F00306022E13D146
:1044C00090684F000326BE40B0434F00DE68BE40F8
:1044D00030439060506801268E40B0431E79C6F389
:1044E00000168E40304350601E7906F00306032EFE
:1044F00009D0D0684F000326BE40B0434F009E68ED
:10450000BE403043D0601E7906F00306022E13D160
:10451000CF0802F1200656F827004E07F70E0F26A7
:10452000BE40B0434F07FF0E1E69BE403043CF0868
:1045300002F1200646F8270010684F000326BE400F
:10454000B0431E7906F003064F00BE4030431060B2
:104550005E6806F44036002E75D000BF0026009637
:104560003B4E366846F48046394F3E603E463668DC
:1045700006F48046009600BF00BF364E8F0856F8FE
:1045800027008E07370F0F26BE40B043324EB2428F
:1045900002D1002624E056E0304EB24201D101267D
:1045A0001EE02F4EB24201D1022619E02D4EB2423A
:1045B00001D1032614E02C4EB24201D104260FE0B3
:1045C0002A4EB24201D105260AE0294EB24201D15B
:1045D000062605E0274EB24201D1072600E0082654
:1045E0008F073F0FBE4030431A4E8F0846F8270012
:1045F000214E3068A0435E6806F4803606B1204341
:104600001D4E3060361D3068A0435E6806F40036EB
:1046100006B12043184E361D3060361D3068A04369
:104620005E6806F4801606B12043134E08363060EB
:10463000361D3068A0435E6806F4001606B12043BC
:104640000D4E0C363060491C1029FFF427AFF8BD21
:104650004438024008380140000002400004024093
:1046600000080240000C024000100240001402400A
:1046700000180240001C0240003C01400AB1816168
:1046800001E00B048361704700B54FF0E020006942
:1046900000F4803008B100F005F80148006800BD62
:1046A00004000020034800680349098808440149C0
:1046B00008607047040000201800002010B50D4865
:1046C000006840F400700B4908600846006840F438
:1046D000806008600846006840F48070086003202D
:1046E00000F082F8002000F007F800F00BF800203E
:1046F00010BD0000003C024010B5044608F012FB5B
:10470000002010BD08B500BF002000900E480068D2
:1047100040F480400C4908600846006800F480407E
:10472000009000BF00BF00BF00200090081F00687D
:1047300040F08050091F08600846006800F0805073
:10474000009000BF00BF08BD443802400146084643
:10475000002809DB00F01F0301229A4043099B0057
:1047600003F1E023C3F8002100BF70472DE9F05F9B
:1047700080460D461646002705F048FF0746394695
:104780002A46334601F00700C0F1070ABAF1040FC8
:1047900002D94FF0040A01E0C0F1070AD14600F146
:1047A000040ABAF1070F02D24FF0000A01E0A0F1AB
:1047B000030AD4464FF0010A0AFA09FAAAF1010ADB
:1047C0000AEA020A0AFA0CFA4FF0010B0BFA0CFB88
:1047D000ABF1010B0BEA030B4AEA0B0421464046FE
:1047E00005F01CFFBDE8F09F00BF00F00702064B7C
:1047F00019684FF6FF031940044B0B4343EA0221AB
:10480000014B196000BF70470CED00E00000FA0595
:1048100070B504460D460CB9012070BD58480068BB
:1048200000F00700A84209D255490D7008460068FB
:1048300000F00700A84201D00120EEE7207800F048
:10484000020002281DD1207800F00400042805D1C0
:104850004C48006840F4E0504A490860207800F075
:104860000800082805D14748006840F460404549E1
:1048700008604448006820F0F000A16808434149FE
:104880000860207800F00100A8B36068012807D113
:104890003C4808380068C0F34040B8B90120BCE784
:1048A0006068022802D06068032807D135480838BC
:1048B0000068C0F3406048B90120AEE731480838CD
:1048C0000068C0F3400008B90120A6E72D48006841
:1048D00020F00300616808432A490860FFF7D4FE0E
:1048E000064609E0FFF7D0FE801B41F2883188427E
:1048F00002D9032091E707E02248006800F00C008D
:104900006168B0EB810FEDD11D48006800F0070031
:10491000A84209D91A490D700846006800F007003E
:10492000A84201D0012078E7207800F00400042894
:1049300007D11448006820F4E050E16808431149A9
:104940000860207800F00800082808D10D480068A9
:1049500020F46040216940EAC1000A49086000F083
:104960003FF808490968C1F30311074A515CC84080
:104970000649086006480068FFF7BEFE00204CE7C5
:10498000003C02400838024012E9000810000020F4
:104990000800002001480068704700001000002057
:1049A00000B5FFF7F7FF04490968C1F38221034A04
:1049B000515CC84000BD00000838024022E90008F0
:1049C00000B5FFF7E7FF04490968C1F34231034A24
:1049D000515CC84000BD00000838024022E90008D0
:1049E0002DE9F047002400250026A146254800684F
:1049F00000F00C0020B1042805D008283AD105E0C9
:104A0000DFF8849039E0DFF8849036E01D48001F1D
:104A1000006800F03F041B48001F006800F480009D
:104A200078B11A481749091F0968C1F38811A0FB1A
:104A300001700146224600233846FBF729FD054652
:104A40000EE011480F49091F0968C1F38811A0FB46
:104A500001700146224600233846FBF719FD054642
:104A60000848001F0068C0F30140401C4600B5FB29
:104A7000F6F902E0DFF8109000BF00BF4846BDE83D
:104A8000F0870000083802400024F40000127A0089
:104A9000F8B504460CB90120F8BD207800F00100FB
:104AA000002874D0F948006800F00C0004280DD0EC
:104AB000F648006800F00C00082813D1F348001FE6
:104AC000006800F48000B0F5800F0BD1EF48083883
:104AD0000068C0F34040002859D06068002856D1D3
:104AE0000120D9E700BF6068B0F5803F08D1E748F2
:104AF0000838006840F48030E449083908601EE056
:104B00006068B0F5A02F0DD1E0480838006840F487
:104B10008020DE49083908600846006840F480308B
:104B200008600CE0D9480838006820F48030D74984
:104B3000083908600846006820F48020086000BF3B
:104B4000606890B1FFF7A0FD054606E0FFF79CFD09
:104B5000401B642801D903209EE7CC480838006830
:104B6000C0F340400028F1D011E0FFF78DFD05466D
:104B700006E0FFF789FD401B642801D903208BE77D
:104B8000C24808380068C0F340400028F1D12078BE
:104B900000F0020002285FD1BC48006800F00C0061
:104BA00058B1BA48006800F00C0008281CD1B7487A
:104BB000001F006800F48000B0B9B44808380068ED
:104BC000C0F3400020B1E068012801D0012063E774
:104BD000AE480838006820F0F800216940EAC100BA
:104BE000AA490839086037E0E06800B30120A84905
:104BF0000860FFF749FD054606E0FFF745FD401B4D
:104C0000022801D9032047E7A04808380068C0F30C
:104C100040000028F1D09D480838006820F0F800D6
:104C2000216940EAC10099490839086014E0002070
:104C300097490860FFF728FD054606E0FFF724FDC9
:104C4000401B022801D9032026E790480838006855
:104C5000C0F340000028F1D1207800F008000828B7
:104C60002CD16069A8B101208A490860FFF70CFDCA
:104C7000054606E0FFF708FD401B022801D9032086
:104C80000AE782486C300068C0F340000028F1D089
:104C900014E000207F490860FFF7F6FC054606E0B7
:104CA000FFF7F2FC401B022801D90320F4E6774805
:104CB0006C300068C0F340000028F1D1207800F08B
:104CC0000400042870D1002770483830006800F0D4
:104CD000805090B900BF002000906C4838300068C8
:104CE00040F080506949383108600846006800F09B
:104CF0008050009000BF00BF01276748006800F4A3
:104D00008070B0B96448006840F4807062490860FF
:104D1000FFF7BAFC054606E0FFF7B6FC401B022889
:104D200001D90320B8E65C48006800F480700028D0
:104D3000F2D000BFA068012808D15448683000684C
:104D400040F001005149683108601DE0A068052865
:104D50000DD14E486830006840F004004B4968317E
:104D600008600846006840F0010008600CE0474811
:104D70006830006820F00100444968310860084646
:104D8000006820F00400086000BFA068A8B1FFF729
:104D90007BFC054609E0FFF777FC401B41F28831B8
:104DA000884202D9032077E626E038486830006858
:104DB000C0F340000028EED013E0FFF765FC054685
:104DC00008E0FFF761FC401B41F28831884201D9BD
:104DD000032061E62D4868300068C0F340000028D9
:104DE000EFD1012F07D129483830006820F08050DA
:104DF00026493831086000BFA069002845D0234803
:104E0000006800F00C0008285DD0A069022845D198
:104E100000201F490866FFF737FC054606E0FFF74C
:104E200033FC401B022801D9032035E61748083817
:104E30000068C0F340600028F1D1D4E907010843BD
:104E4000616A40EA81110122A06AC2EB500041EA86
:104E500000412C20005D41EA00600C49091F0860F8
:104E600001200B490866FFF70FFC054606E0FFF737
:104E70000BFC401B022801D903200DE6034808382B
:104E80000068C0F340600028F1D049E008380240D3
:104E900000004742800E4742007000400020214938
:104EA0000866FFF7F1FB054606E0FFF7EDFB401B48
:104EB000022801D90320EFE51B480068C0F34060D9
:104EC0000028F2D12CE0A069012800D1E4E51648C1
:104ED000001D0668A069012820D006F48001E06961
:104EE00081421BD106F03F01206A814216D147F66C
:104EF000C0703040616AB0EB811F0FD106F44031C1
:104F00000122A06AC2EB5000B1EB004F06D106F0BF
:104F100070612C20005DB1EB006F01D00120BBE57A
:104F20000020B9E5000047420038024010B50446B1
:104F30000CB9012010BD606A38B96068B0F5827F95
:104F400000D105E00021E16102E000212161616101
:104F50000021A16294F8510028B9002084F8500083
:104F6000204600F047F8022084F8510020680068CD
:104F700020F0400021680860A08800F48270218938
:104F800001F404410843A18901F400610843217C34
:104F900001F002010843217D01F001010843218B4A
:104FA00001F400710843217F01F0380108432021FA
:104FB000095D01F080010843218D01F4005108438F
:104FC000216808600421A06901EA104094F82410C7
:104FD00001F010010843216848602068C06920F48E
:104FE00000602168C86100206065012084F85100DC
:104FF00000209FE710B586B00446142101A8FBF7F6
:1050000021FC1B49206888422FD100BF002000905E
:105010001848006840F48050164908600846006847
:1050200000F48050009000BF00BF00BF002000903F
:1050300010481438006840F001000E491439086027
:105040000846006800F00100009000BF00BFA020EB
:10505000019002200290002003900320049005207C
:10506000059001A90448FFF711FA06B010BD000031
:105070000030014044380240000002402DE9F84F62
:105080000446884616461D464FF0000A00BF94F8B5
:105090005000012802D10220BDE8F88F012084F8D9
:1050A000500000BFFFF7F0FA0746B14694F85100F0
:1050B000012802D04FF0020AADE0B8F1000F00D095
:1050C00016B94FF0010AA6E0032084F85100002031
:1050D0006065C4F83080A686E686A063A087E08776
:1050E00060642064A068B0F5004F0BD120680068B0
:1050F00020F04000216808602068006840F480408B
:10510000216808602068006800F04000402805D051
:105110002068006840F0400021680860E068B0F551
:10512000006F2FD1606810B1B9F1010F09D1206B68
:1051300000882168C860206B801C2063E08E401EC0
:10514000E0861BE02068806800F0020002280AD197
:10515000206B00882168C860206B801C2063E08E73
:10516000401EE0860AE0FFF78FFAC01BA84201D379
:10517000681C00B915B94FF0030A4CE0E08E002816
:10518000E0D12EE0606810B1B9F1010F09D1206BB8
:10519000007821680873206B401C2063E08E401E5D
:1051A000E0861BE02068806800F0020002280AD137
:1051B000206B007821680873206B401C2063E08E10
:1051C000401EE0860AE0FFF75FFAC01BA84201D349
:1051D000681C00B915B94FF0030A1CE0E08E0028E6
:1051E000E0D13A462946204603F01CFB08B12020B6
:1051F0006065A06850B900BF002000902068C068BA
:10520000009020688068009000BF00BF606D08B10A
:105210004FF0010A00BF012084F8510000BF0020B8
:1052200084F8500000BF504636E770B50446254666
:10523000681EB0F1807F01D301200FE0681E4FF09F
:10524000E02148610F214FF0FF3005F0E7F9002021
:105250004FF0E021886107200861002070BD704791
:10526000704710B50346002200BF93F83C000128A8
:1052700001D1022010BD012083F83C0000BF22F0C4
:10528000FF00CC6840EA040222F440708C6840EAD7
:10529000040222F480604C6840EA040222F40060B8
:1052A0000C6840EA040222F480500C6940EA0402CF
:1052B00022F400504C6940EA040222F48040CC6998
:1052C00040EA04021868426400BF002083F83C00F2
:1052D00000BF00BFCEE7000030B502460B4600BF5E
:1052E00092F83C00012801D1022030BD012082F853
:1052F0003C0000BF022082F83D001068446810683E
:10530000816824F070041868044310684460184DE4
:105310001068A8421BD01068B0F1804F17D0154D0F
:105320001068A84213D0144D1068A8420FD0134D36
:105330001068A8420BD0124D1068A84207D0114D3A
:105340001068A84203D0104D1068A84205D121F082
:1053500080015868014310688160012082F83D0097
:1053600000BF002082F83C0000BF00BFBDE7000086
:10537000000001400004004000080040000C004014
:1053800000040140004001400018004070B5044690
:105390000D4615B994F842000BE0042D02D14320CC
:1053A000005D06E0082D02D14420005D01E04520AB
:1053B000005D012801D0012070BD1DB9022084F8D4
:1053C00042000EE0042D03D102214320015508E0E4
:1053D000082D03D102214420015502E0022145207D
:1053E000015504222946206803F0D7FD2068406C4F
:1053F00040F40040216848641A49206888421BD064
:105400002068B0F1804F17D017492068884213D028
:105410001649206888420FD01549206888420BD071
:1054200014492068884207D013492068884203D075
:105430001249206888420CD12068806800F0070675
:10544000062E0CD02068006840F00100216808603A
:1054500005E02068006840F0010021680860002035
:10546000AAE70000000001400004004000080040DE
:10547000000C0040000401400040014000180040C2
:1054800070B504460D4600222946206803F085FDCC
:1054900000BF2068006A41F21111084050B920682D
:1054A000006A8910084028B92068406C20F4004048
:1054B0002168486400BF00BF2068006A41F21111F2
:1054C000084050B92068006A8910084028B920684F
:1054D000006820F001002168086000BF1DB90120AC
:1054E00084F842000EE0042D03D101214320015530
:1054F00008E0082D03D101214420015502E00121DB
:1055000045200155002070BD10B504460CB901209E
:1055100010BD94F83D0028B9002084F83C002046D6
:1055200000F026F8022084F83D00211D206803F0D9
:10553000B7FC012084F8460000BF84F83E0001213A
:105540003F200155402001554120015500BF00BFBB
:10555000012084F842004320015544200155452094
:10556000015500BF012084F83D000020D0E7000075
:1055700038B504463A492068884233D100BF00203C
:1055800000903848006840F001003649086008463D
:10559000006800F00100009000BF00BF32483349AE
:1055A00008604FF040604860402130488160002131
:1055B000C1604FF4806101618900416189008161AE
:1055C0000021C1614FF48031016200214162FEF788
:1055D0009FFD08B1FDF76AFA00BF244961620846E1
:1055E00084633CE02068B0F1804F1AD100BF0020F6
:1055F00000901C48001F006840F001001949091F75
:1056000008600846006800F00100009000BF00BF7D
:10561000002211461C20FFF7A9F81C20FFF796F87E
:105620001DE013492068884219D100BF0020009076
:105630000C48001F006840F004000A49091F086078
:105640000846006800F00400009000BF00BF002280
:1056500011461E20FFF78AF81E20FFF777F838BDA5
:10566000000001404438024028640240B004002099
:1056700000080040014691F83D00012801D00120BA
:105680007047022081F83D000868C06840F00100C2
:105690000B68D8601A4B086898421BD00868B0F1B4
:1056A000804F17D0174B0868984213D0164B0868E4
:1056B00098420FD0154B086898420BD0144B0868DD
:1056C000984207D0134B0868984203D0124B0868E1
:1056D00098420CD10868806800F00702062A0CD0B6
:1056E0000868006840F001000B68186005E0086871
:1056F000006840F001000B6818600020C0E700005F
:10570000000001400004004000080040000C004080
:1057100000040140004001400018004001460868B4
:10572000C06820F001000A68D06000BF0868006A05
:1057300041F21112104050B90868006A92101040EE
:1057400028B90868006820F001000A68106000BFEE
:10575000012081F83D00002070472DE9F04104460A
:105760000D46002700BF94F83C00012802D102201A
:10577000BDE8F081012084F83C0000BF022084F8DD
:105780003D002068866826F0770626F47F4620686C
:1057900086602868502833D00CDC202850D004DCE8
:1057A00000284BD0102851D149E0302849D040285A
:1057B0004CD139E060282DD0702807D0B0F5805F3B
:1057C00003D0B0F5005F41D10DE041E0D5E902130F
:1057D0006A68206803F075FC2068866846F07706E2
:1057E0002068866034E0D5E902136A68206803F017
:1057F00068FC2068806840F480402168886027E069
:10580000EA686968206803F04DFD5021206803F0C4
:1058100063FC1DE0EA686968206803F056FD6021BA
:10582000206803F059FC13E0EA686968206803F017
:1058300039FD4021206803F04FFC09E000BF00BFA4
:1058400000BF2968206803F047FC01E0012700BF82
:1058500000BF012084F83D0000BF002084F83C0018
:1058600000BF384684E77047704710B5044620688B
:105870000069C0F34000D8B12068C068C0F34000A0
:10588000B0B16FF002002168086101202077206824
:10589000806900F0030018B12046FFF7E5FF05E03E
:1058A000204600F027F9204600F016FA0020207765
:1058B00020680069C0F38000D8B12068C068C0F3D8
:1058C0008000B0B16FF004002168086102202077E9
:1058D0002068806900F4407018B12046FFF7C4FFCB
:1058E00005E0204600F006F9204600F0F5F900201A
:1058F000207720680069C0F3C000D8B12068C06874
:10590000C0F3C000B0B16FF0080021680861042046
:1059100020772068C06900F0030018B12046FFF727
:10592000A3FF05E0204600F0E5F8204600F0D4F99A
:105930000020207720680069C0F30010D8B12068EB
:10594000C068C0F30010B0B16FF0100021680861AA
:10595000082020772068C06900F4407018B1204604
:10596000FFF782FF05E0204600F0C4F8204600F073
:10597000B3F9002020772068006900F0010058B1D9
:105980002068C06800F0010030B16FF001002168AC
:105990000861204600F060FB20680069C0F3C01079
:1059A00058B12068C068C0F3C01030B16FF08000FB
:1059B000216808612046FFF752FC20680069C0F3A7
:1059C000801058B12068C068C0F3801030B16FF00B
:1059D000400021680861204600F060FB20680069F3
:1059E000C0F3401058B12068C068C0F3401030B117
:1059F0006FF02000216808612046FFF731FC10BDE0
:105A000010B586B00446142101A8FAF71BFF3349EC
:105A1000206888421DD100BF0020009030480068F7
:105A200040F001002E4908600846006800F00100BF
:105A3000009000BF00BF8815019002200290002056
:105A4000039004900120059001A92648FEF71EFD51
:105A500041E02549206888421DD100BF0020009008
:105A60001F48006840F001001D49086008460068B2
:105A700000F00100009000BF00BF0F200190022045
:105A800002900020039004900220059001A915487F
:105A9000FEF7FCFC1FE01549206888421BD100BFBF
:105AA000002000900E48006840F002000C49086099
:105AB0000846006800F00200009000BF00BF02200E
:105AC000019002900020039004900320059001A90A
:105AD0000748FEF7DBFC06B010BD000000000140E7
